:10000000A0220020511C00004D1C00004D1C0000CF
:1000100000000000000000000000000000000000E0
:100020000000000000000000000000004D1C000067
:1000300000000000000000004D1C00004D1C0000EE
:100040004D1C00004D1C00004D1C00004D1C00000C
:100050004D1C00004D1C00004D0500004D1C000013
:100060004D1C000015150000251500003515000079
:100070004515000055150000651500004D1C0000D9
:100080004D1C00004D1C00004D1C00004D1C0000CC
:100090004D1C00004D1C00004D1C00004D1C0000BC
:1000A0004D1C00004D1C00004D1C00004D1C0000AC
:1000B0000000000010B5064C2378002B07D1054B3B
:1000C000002B02D0044800E000BF0123237010BDC4
:1000D000800000200000000060390000084B10B5CF
:1000E000002B03D00749084800E000BF0748036819
:1000F000002B00D110BD064B002BFBD09847F9E731
:100100000000000084000020603900006039000019
:100110000000000010B50022002302704270002190
:100120004280017103760262C26182600373C0245F
:100130006401C481037443748374C37403752A24F3
:10014000035543758375063C0355C2840285C1750A
:100150002B23C1540133C15410BD0000F0B5D64665
:100160004F464646C0B596B0070016000160CB4A20
:10017000106A80235B02034313620B780520DB07C0
:1001800005D516B01CBC90469946A246F0BD0B782A
:1001900017309B07F5D473783B71002B04D1C04A0C
:1001A000136C04210B4313643B68984633786A460A
:1001B000137069461E20BB4B98471E20BA4B9847C8
:1001C0002C23F25C002A54D0013BF55C337BEB1806
:1001D000DBB2D118C9B28B4221D25219D3B299469F
:1001E000B24B9A4603E00135EDB2A94517D00F2472
:1001F0002C40337BE4185022AD4902A8D047132C81
:10020000F1D8A40002ABE05801A900234B70CB70D9
:100210008B7001330B70C0B2A64B9847E3E7F489AB
:100220005022A34902A8A14B9847132C13D9737DE0
:100230009B00DBB242461370B37DDB01727813433F
:10024000DBB2424653703379342B00D978E19B00FE
:10025000994AD3589F46A40002ABE05801A9002355
:100260004B70CB708B7001330B70C0B2914B9847C1
:10027000DDE7347B50228E4902A88C4B9847132C23
:1002800015D9F48950228A4902A8884B9847132C23
:10029000CDD8A40002ABE05801A900234B70CB706D
:1002A0008B7001330B70C0B2824B9847BFE7A4003C
:1002B00002ABE05801A900234B70CB708B70013367
:1002C0000B70C0B27B4B9847DBE70423102402215C
:1002D0001AE0717C337C102416E0062310240121DF
:1002E00012E00823102400210EE000233024002116
:1002F0000AE000232024002106E00023002400213E
:1003000002E0022310240121090170220A40134354
:1003100042469370F37D17203F2B00D931E7D3700D
:100320003A68537E5BB2002BFBDBF37C728813438D
:100330002422B25CD2001343327D92001343B27C7C
:1003400052001343234342469380337E002B20D038
:10035000102C00D1D6E000D880E0202C00D1B3E0F2
:10036000302C16D1F27C002A0AD0F2698032172094
:10037000FF2A00D905E7326A8032FF2A00D900E758
:100380001720F269FF2A00DDFBE6326AFF2A00DD52
:10039000F7E639684A7E52B2002AFBDB4246137206
:1003A0003A68537E5BB2002BFBDBB38B42469383F0
:1003B0003A68537E5BB2002BFBDB338C42461384DE
:1003C0002C23F35C002B05D0013BDBB217200F2B55
:1003D00000D9D6E62B22B15C17200F2900D9D0E630
:1003E0003868427E52B2002AFBDBF289307B02433E
:1003F000B068024309050A431B04134342461361D4
:100400002A23F35C13750F2393751533F35C002BCC
:1004100012D0F38C294A1720934200D9B1E6424604
:100420009384328D80231B01D31824499BB28B42C5
:1004300000D9A6E64346DA84214B1B685B01E02223
:10044000D20013401F4A516849011268D20E0A4374
:10045000D2B2134342461385002092E6002C98D175
:10046000F27C002A0FD0F269802109018C46624497
:10047000124917208A4200D983E6326A62440F4942
:100480008A4200D97DE60D4A1720F169914200DDCC
:1004900077E6316A914200DD73E67AE700040040B6
:1004A00000080040F51A0000691A0000C926000083
:1004B000A4370000ED1B0000D0360000FF0F000045
:1004C0002460800020608000F27C002A0FD0F26956
:1004D000802189008C4662441A4917208A4200D93B
:1004E0004FE6326A624417498A4200D949E6154A02
:1004F0001720F169914200DD43E6316A914200DD47
:100500003FE646E7F27C002A0FD0F269802109021B
:100510008C4662440C4917208A4200D931E6326A7F
:10052000624409498A4200D92BE6074A1720F1693B
:10053000914200DD25E6316A914200DD21E628E79F
:1005400017201EE6FF030000FFFF000010B5264B3A
:10055000984726490B8C0F2213409B0024481858BB
:1005600003781A403F23CA540F33CA5CD2B20378CF
:100570001B012049C91849881F4CE3185B88CB1A16
:100580004361D3070FD501214E23184AD1543E3B76
:100590004374037CDB0703D54368002B00D09847E6
:1005A000164B984710BD93070DD502214E230F4AD5
:1005B000D15400234374037C9B07F1D58368002B3F
:1005C000EED09847ECE75307EAD504214E23074ABB
:1005D000D154483B4374037C5B07E1D5C368002BCF
:1005E000DED09847DCE7C046E11500000048004136
:1005F0009C000020E0010020B00000202116000037
:1006000000230370437003228270C370037170472C
:10061000F8B5CE46474680B505000E00454B9847D5
:10062000454B1B78002B18D1444B5A6920210A43B3
:100630005A61DA6910390A43DA61414B1A880E3976
:100640008A431A8001221A803E4A5A633E4A9A63BC
:100650003E4A1A80384B01221A70364B9847364B67
:100660005B68DA070FD55B08012401221A420BD020
:100670005B080134E4B2052CF8D1354B9847344B74
:100680009847142051E000242B4A51680123A340CD
:100690000B435360137A013B13722D4B9847FF2C89
:1006A000EDD02C700F2398461C40254F30339946CF
:1006B000FC540133FA5C02218A43FA540124FC54AD
:1006C0001C4B98472B78424613404A46BB543B6923
:1006D0002A789440A3433B6132785201602313404F
:1006E00072781202FC2189010A401343B278920504
:1006F000C02109040A401343F178002904D00722DD
:100700000A4008210A4313433279002A01D01022FB
:1007100013430B4A53640E4CA0470023AB612B7864
:100720009B000C4A9D50A04700200CBC9046994667
:10073000F8BDC046E11500000000002000040040A4
:1007400000480041E0010020B0000020020F00003E
:10075000211600009C00002070B50400194B98473A
:10076000637C052B08D0A3695B889BB2002B07D163
:10077000154B9847172070BD134B98470520FAE793
:100780004026124B1E6022780F231340104D3F224B
:10079000AB5423780F4AD25C072313404D22AB544D
:1007A00005236374207800010B4BC018A1693D3A02
:1007B0000A4B9847AB5D02221343AB55024B984757
:1007C0000020D8E7E11500002116000000E100E05C
:1007D0000048004100010020E0010020C92600007F
:1007E000F0B50A780388012632400124A34313435D
:1007F00003804B78048803273B405B000622944328
:100800001C4304808D7804883D40ED0018239C43F0
:100810002C430480CA7803883A401202164C2340C5
:10082000134303800B79048833409B02134A14401E
:100830001C4304804D7904883540ED02104B1C4068
:100840002C4304808A790388324012030D4C2340E4
:1008500013430380CB7907221A4003885203DB0439
:10086000DB0C134303800B894380CB6843600B6927
:1008700083604B69C360F0BDFFFCFFFFFFFBFFFF20
:10088000FFF7FFFFFFEFFFFF427C0523052A0BD098
:100890008369002B0AD0DA68002A03D0DB68DA68A3
:1008A000002AFBD1D9600023180070478161002322
:1008B000FAE7F0B5DE4657464E464546E0B587B006
:1008C0008046049116001F000022002300218B4661
:1008D0003F2401202100009601975C460394444682
:1008E000059413E02024641A0500E540A84614E0AE
:1008F000009C019D121BAB415C464D462C43A34618
:10090000039C45462C430394013925D3202464429B
:100910000C19E7D40500A540A84604008C40A14668
:1009200092185B4114001D00059E4F463E40B446A0
:10093000049E47463E40B246664657463E4303D075
:100940000600264332002B00009C019D9D42DBD80F
:10095000CED19442D8D8CBE7039B5846190007B0B4
:100960003CBC90469946A246AB46F0BD10B549083E
:1009700040230024814202D2180010BD1C00091A35
:10098000631C9BB28842F9D94023FF2CF4D8148011
:100990000023F1E7F0B583B00F00160008AA117824
:1009A00004004C434022BC4202D9100003B0F0BD09
:1009B000002B14D1020008000021194CA0470100AF
:1009C0003A0000230020174CA04700220123121AEE
:1009D0008B41120C1B041A4332800022E5E70022EF
:1009E000012BF9D10A00002300210D4CA047020081
:1009F0000B0000920193380000210A4CA04705002B
:100A000080239B0140229842CFD8790FF800009AAA
:100A1000019BA047EA00821AD2B252032A43DBE7C5
:100A20000D1F0000B308000010B582B004000E4B8B
:100A30001B78002B07D0002905D10B4B5B78834234
:100A400010D01D200CE001A90C701320074B984713
:100A50001320074B9847044B5C7001221A7000204A
:100A600002B010BD0020FBE708010020F51A0000CD
:100A7000691A0000404B984231D00AD93F4B984246
:100A80004DD03F4B98425AD03E4B984237D0002031
:100A900070473D4B98420CD03C4B9842F7D101290E
:100AA00017D000295DD0022915D0032915D00020C8
:100AB000EEE7012907D0002951D0022905D00329EA
:100AC00005D00020E4E73248E2E73248E0E7324868
:100AD000DEE73248DCE73248DAE73248D8E7012976
:100AE00007D000293FD0022905D0032905D00020D6
:100AF000CEE72D48CCE72D48CAE72D48C8E70129A5
:100B000007D0002931D0022905D0032905D00020C3
:100B1000BEE72848BCE72848BAE72848B8E70129D3
:100B200007D0002923D0022905D0032905D00020B1
:100B3000AEE72348ACE72348AAE72348A8E7012902
:100B400007D0002915D0022905D0032905D000209F
:100B50009EE71E489CE71E489AE71E4898E71E48F5
:100B600096E7032094E71D4892E71D4890E71D484B
:100B70008EE71D488CE7C046001000420018004276
:100B8000001C00420014004200080042000C004219
:100B90000300050003000600030007000300010036
:100BA00003001E0003001F000300090003000A00E9
:100BB00003000B00030011000300120003001300E8
:100BC00003000D0003000E0003000F0003001700D8
:100BD00003001800030019000300040003000800CC
:100BE0000300100003000C000300160030B587B0AE
:100BF0000B4B6A4632CB32C232CB32C2009B8342AD
:100C00000BD001239A0069465258824206D0013324
:100C1000062BF7D1002007B030BD0023D8B2FAE789
:100C2000F4370000F0B5C64600B50C009046002829
:100C30000FD1002A11DD8F18094E0A4D30682100AE
:100C40002B6898470134BC42F8D1404604BC90461A
:100C5000F0BD01235B429846F7E78046F5E7C046C2
:100C60003802002030020020F0B5C64600B50E0064
:100C700015000138022810D8002A11D000240C4B8E
:100C800098460C4F43461868315D3B6898470028EA
:100C900008DB0134A542F5D106E00124644203E0FB
:100CA000140001E001246442200004BC9046F0BD21
:100CB000380200203402002030B595B008AC200086
:100CC0002A4B98470023A360237180229200628000
:100CD0000122627004212173C0214901E181227542
:100CE000A374234D220023492800234B98472A68E8
:100CF000537E5BB2002BFBDB0F23937513761378C7
:100D000002210B4313701A4B1A68537E5BB2002BFF
:100D1000FBDB06AC2000194B984727236370253B6B
:100D2000A370174D21002800164B984701226B46EF
:100D30001A70002369464B708B704A718B71CB71AE
:100D4000CA700B7110330B81094B1B681A33039364
:100D50000D4B203304930D4C059420000C4B984709
:100D6000210028000B4B984715B030BD150100003D
:100D70000C010020004000425D010000010600005F
:100D80001401002011060000300100204002002064
:100D9000E10700008908000010B5094B1A68537E6E
:100DA0005BB2002BFBDB137B02210B431373537EDF
:100DB0005BB2002BFBDB0348034B984710BDC046DA
:100DC0000C0100201401002059070000054B1900F8
:100DD000203100201A88801802338B42FAD1000992
:100DE00080B270473001002010B5054B9847054B85
:100DF0009847054CE6218905A0470449A04710BD46
:100E0000CD0D0000B9250000611F000068B30E4041
:100E100070B582B005000E0000226B46DA80064CE9
:100E20006B46991D2800A0470028F9D16B46063370
:100E30001B88337002B070BDA712000070B50500AA
:100E40008CB2034E21002800B0470028FAD170BDB3
:100E500081120000F8B52C4A8023DB0513600023C3
:100E60005360FF21118100219372D3720124242049
:100E7000145401301454013013540130135493624C
:100E8000053013540130135453611382D376117615
:100E9000117751761323937651771C4B13631C4BB8
:100EA000536301235B429363D36380235B03D3606B
:100EB000E1235B021362174D174B1D601749184B56
:100EC00019601849184B196018492800184B9847A1
:100ED000184F3B6898680021174EB0473B68586828
:100EE0000021B0472E683000144B98471F2318404C
:100EF0008440134B1C602A68D369002BFCD13368F3
:100F0000022213433360F8BD500100200200160096
:100F10000200170050020020380200203D0E0000A1
:100F200034020020110E00003002002000140042A4
:100F3000450F00001800002021270000E5140000E4
:100F400000E100E0F0B5DE4657464E464546E0B5C6
:100F500091B005000C00160029600800BA4B9847B4
:100F6000020023680520DB0706D511B03CBC904683
:100F70009946A246AB46F0BD236817309B07F4D4D0
:100F8000B249086A971C0123BB4003430B620FA9B7
:100F90002D27F35D0B701432D3B202931800AC4BC3
:100FA00098470298AB4B9847F05D0021AA4B9847B1
:100FB000F37A6B712423F35CAB712523F35CEB7143
:100FC000F37E2B72337F6B722B68984618009E4B12
:100FD0009847143000220E2306A98C4663441A80D9
:100FE000328A02928023DB019A4200D19AE00FD923
:100FF000C023DB01029A9A4200D18EE080231B02BB
:101000009A4200D01BE1032306930023079308E0D4
:1010100080239B019A4200D011E1102306930F3BDD
:10102000079333680593F3689B4673690393337E94
:1010300004932623F35C9A4673689946002B00D1EB
:101040009CE080235B05994500D180E0737E002BF6
:1010500002D0B37E424693730E2306AA944663449D
:101060001B8842469381059B5A461343039A1343B8
:101070004A461343029F1F43049B1B021F435346D0
:101080005B071F432723F35C002B01D104331F436D
:10109000737E9B02327F52021343727F120213430C
:1010A0002422B25C520413432522B25C120413437F
:1010B000B17AF27A114319433389FF2B00D181E0D1
:1010C00080225204174319432C23F35C002B03D1D5
:1010D000624B9B789B0701D580231F432A68D36905
:1010E000002BFCD1434659602A68D369002BFCD100
:1010F00043461F600EAB80221A7000225A70DA70CD
:101100009A70336B0A93736B0B93B36B0C93F36B03
:1011100002930D9300270AAE63E008230693073B72
:1011200007937EE733680593F3689B4673690393DF
:10113000337E04932623F35C9A4673689946002B0A
:1011400018D080235B05994501D0002025E0272396
:10115000F35C002B00D079E7336A1F00C0B2404B2C
:10116000984701000E2206AB9C46624438003D4B76
:10117000984712E008230693002307932723F35C84
:10118000002B0ED0069B0093079B0E2206A98C46CF
:101190006244B16A306A344FB847002800D0E4E6B0
:1011A00054E7336A1F00C0B22D4B98470100069BDD
:1011B0000093079B0E2206A88446624438002A4FFB
:1011C000B847EAE7F37E002B00D17DE78023DB04FC
:1011D0001F4379E72000254B984707E00137042F8C
:1011E0000DD0F9B2BB0098590028F3D0431CF5D0BC
:1011F0000EA90870000CC0B21D4B9847EEE7002303
:10120000EB602B616B61AB61EB612B62AB626B627C
:101210000022EB85AB853033EA540133EA540133C5
:10122000EA540133EA542868074B984704001149EF
:10123000114B9847A400114BE550002095E6102370
:10124000069300230793ECE6ED0B0000000400403A
:10125000F51A0000691A0000290A00000020004168
:10126000111B00006D09000095090000750A0000BF
:10127000ED1B000011130000A914000084020020DF
:10128000C2791C23002A01D118007047C28D92B286
:10129000173B002AF8D1026811850221137E0B4208
:1012A000FCD00023F0E782791C23002A01D118002A
:1012B0007047828D92B2173B002AF8D10268107EE7
:1012C0004007F4D5538BDBB298061DD0980703D5A1
:1012D000022353831833EAE7580703D504235383C3
:1012E0001A33E4E7D80703D5012353831233DEE72B
:1012F000D80603D5102353833233D8E79B0603D592
:10130000202353832133D2E7138D0B800023CEE7B4
:10131000F8B58000624BC5582C68E369002BFCD1FE
:10132000237EA67D1E403023EB5C3122AF5C1F4044
:10133000F30722D5EB8D9BB2002B1CD0AA6A137841
:10134000DBB2511CA962697901290ED09BB2DB0581
:10135000DB0D2385EB8D013B9BB2EB85002B0CD184
:10136000013323750133A37507E0517809020B435C
:101370000232AA62EBE701232375B30706D50223E5
:10138000237500223133EA54FB071AD4730765D55D
:10139000AB8D9BB2002B5FD0638BDBB21A0714D4EA
:1013A0003F221340002B34D09A0711D51A22322342
:1013B000EA54303B63837B0750D528006B6998471C
:1013C0004CE02800EB689847E0E737221340E9E754
:1013D0005A0705D51E223223EA542E3B6383EAE7DF
:1013E000DA0705D513223223EA54313B6383E2E75F
:1013F000DA0605D542223223EA54223B6383DAE738
:1014000020221A42D7D021323223EA54123B63837E
:10141000D1E7238DDB05DB0DDAB2696A0A706A6AEF
:10142000511C69626979012910D0AB8D013B9BB2D7
:10143000AB85002B12D10433237500222E33EA54DE
:10144000BB070BD528002B69984707E01B0A537090
:101450006B6A01336B62E8E704232375F30604D556
:10146000102323752376FB060ED4B30604D5202360
:10147000237523763B070BD4330704D50823237544
:101480002376BB0608D4F8BD2800EB699847ECE743
:101490002800AB699847EFE72B6A28009847F2E7E6
:1014A0008402002070470000F0B50A4B1B78002B27
:1014B0000CD1094F094E0A4D0024DE515A1914600F
:1014C0000433182BF9D10122024B1A708000024B11
:1014D000C150F0BD9001002094010020A51400002F
:1014E0008402002000B583B009236A4613700133DB
:1014F0005370013393700133D3700133137101338F
:101500005371034B98476B46185603B000BDC04655
:10151000ED0B000010B5024B1B680020984710BD72
:101520009401002010B5024B5B680120984710BD64
:101530009401002010B5024B9B680220984710BD13
:101540009401002010B5024BDB680320984710BDC2
:101550009401002010B5024B1B690420984710BD70
:101560009401002010B5024B5B690520984710BD1F
:101570009401002070B50020084B98470500084CE6
:10158000FA218900A047074B186007492800A047A7
:10159000064B18600522064B1A6070BDDD1900006D
:1015A000F51D00000C00002040420F00100000203C
:1015B00010E000E030B5084B1C68084A0025802187
:1015C0004902013807D3002CFBD0546095601368A2
:1015D0000B42FCD0F5E730BD0C00002010E000E02D
:1015E0000C4B1B68002B06D1EFF31083002B07D0A8
:1015F0000022094B1A70074A1368013313607047C1
:1016000072B6BFF35F8F0022044B1A700132024B97
:101610001A70F0E7AC010020B00100201400002097
:10162000084B1A68013A1A601B68002B09D1064B57
:101630001B78002B05D00122044B1A70BFF35F8F7B
:1016400062B67047AC010020B001002014000020F9
:10165000F0B583B001AC012565700027A770257037
:1016600021003E20064EB0478022D205054B9A61EC
:101670002770657021000F20B04703B0F0BDC04651
:10168000891600008044004100B583B001AB802280
:101690001A700A785A704A789A708A78DA70190043
:1016A000014B984703B000BDED1B000010B50828A2
:1016B00003D880001C4B1B589F46002032E01B4B78
:1016C00018692FE01A4B1B6A9B059B0F1948D840DD
:1016D00028E0164B586925E0144B1B6800209B0737
:1016E00020D513491022CB681A42FCD00F4B1A6840
:1016F00024231340042B01D00F4813E000200F4B8C
:1017000098470A4B9B681B041B0C58430AE0502364
:10171000074AD35C00205B0704D5044BD86801E07E
:101720008020000210BDC0460C380000B40100202B
:101730000008004000127A00006CDC02111B00005F
:1017400070B50C490B6A0478857840780122104006
:1017500080014026B34303432A40D20180208343C3
:1017600013430322224012020348034013430B6237
:1017700070BDC04600080040FFFCFFFF082803D8EA
:101780008000254B1B589F46172044E0234A136ACC
:1017900002210B43136200203DE0204A936902219D
:1017A0000B439361002036E01C4A138A02210B434D
:1017B000138200202FE0194A938A02210B4393825F
:1017C000002028E016490B68022213430B60134BDC
:1017D0009A8419000E32CB681A42FCD0104A9168E4
:1017E0000E4BD96252689A6200229A841900103214
:1017F000CB681A42FCD00A4B1B689BB2074A938401
:10180000002008E0054944228B5C022003438B54EE
:10181000002000E000207047303800000008004041
:10182000B401002030B585B0C222D2001A4B9A60B4
:101830001A4A53681E218B43536001236A46137072
:101840000024174DE0B26946A8470134252CF9D190
:1018500003A800244470012585700470114B98473B
:101860000620114B9847114B9847114B1C725C7224
:101870009C72DC7201956B465C7006236A4613709D
:1018800014725472694600200A4B984700200A4B94
:10189000984705B030BDC0460008004000400041F8
:1018A000F51A0000411700007D170000BD18000068
:1018B00000040040E118000099190000064A9369ED
:1018C00008210B4393610122044B1A7019000B7815
:1018D0001342FCD17047C04600040040000C004099
:1018E00070B5060004000D782D0205434B78002BDF
:1018F00002D08023DB021D434B7A002B02D08023D1
:101900001B031D434868012810D9431E184234D1D7
:10191000022830D90223002201325B009842FBD812
:1019200012023243140080235B031D430B7A002B09
:1019300002D080239B031D43134A53785BB2002BD4
:10194000FBDB124B9847124B1E700F4A53785BB269
:10195000002BFBDB0C4B9C601A0053785BB2002B16
:10196000FBDB094A5368802149020B401D43556047
:10197000084B984770BD0022D2E70402344380230D
:101980009B021D43D2E7C046000C0040E115000059
:10199000080C00402116000010B504000B4A5378D3
:1019A0005BB2002BFBDB0A4B98470A4B1C70074AC3
:1019B00053785BB2002BFBDB044A516880235B0247
:1019C0000B435360044B984710BDC046000C0040C9
:1019D000E1150000040C00402116000070B5040061
:1019E0001A4A53785BB2002BFBDB194B9847194B13
:1019F0001C70164A53785BB2002BFBDB134E7068E9
:101A0000C004C00E144B98470500124B1C7076683A
:101A1000F602F60F114B1C700C4A53785BB2002B88
:101A2000FBDB0A4B9C682402240C0D4B9847002ECC
:101A300007D1012C07D9210028000A4B984705003F
:101A400001E00134E540280070BDC046000C0040B4
:101A5000E1150000040C0040AD160000080C004029
:101A600021160000F51D000010B50400064B984734
:101A7000064B1C70064A53888021C9010B435380D2
:101A8000044B984710BDC046E1150000020C004011
:101A9000000C00402116000010B504000F4B9847C1
:101AA0000F4B1C700F4A53881B05180F53880E49A3
:101AB0000B40538053880D490B4053801100802206
:101AC000D2014B881342FCD106494A8803020648DA
:101AD000024013434B80064B984710BDE1150000B0
:101AE000020C0040000C0040FFF0FFFFFFBFFFFFB3
:101AF0002116000010B50C7824020443024B9847CD
:101B0000A4B2024B5C8010BD991A0000000C00408A
:101B100010B50400064B9847064B1C70064B5C88BA
:101B20002405240F054B98472000054B984710BD0E
:101B3000E1150000020C0040000C004021160000DE
:101B4000DD19000030B5D378002B35D11378802B08
:101B500029D01B0680246402234354780225AC4319
:101B600006D19478002C20D18024A4022343416024
:101B70005478013C012C1CD90D042D0CA024E40543
:101B80002C431C4384620D0CD02424062C431C439C
:101B90008462D478002C22D15B031CD59378012B6E
:101BA0001ED0416117E00023D7E7C024E40223439D
:101BB000DDE70D4C2340DFE741600C04240CA0233B
:101BC000DB05234383620C0CD0231B062343836273
:101BD000D378002B03D15378013B012B02D930BDC0
:101BE0008161F8E78160FAE7FFFFFBFF10B50A00AB
:101BF000C1090023002904D14309DB0105498C46B2
:101C000063441F242040012181401800024B984763
:101C100010BDC04600440041451B00007047000055
:101C200010B5054B9847054B9847054B9847054B12
:101C30009847054B984710BD251800005116000025
:101C40001D1C00001D1C00001D1C0000FEE7000004
:101C5000F8B52A4A2A4B9A4211D01A00294B9A42C7
:101C60000DD2294A03339B1A9B0801339B000022A3
:101C7000234822498C58845004329A42FAD1234A8C
:101C8000234B9A420AD2D34321495B1803218B4349
:101C900004339B18002102C29342FCD11D4AFF214C
:101CA0001D4B8B439360FD3990235B001B4AD15041
:101CB0001B4AD3780325AB4302242343D370D37844
:101CC0000C27BB4308263343D370164B987B302236
:101CD0009043202210439873997BB9433143997301
:101CE0009A7BAA4322439A730F4A536880210B437D
:101CF00053600E4B98470E4B9847FEE76039000043
:101D0000000000207C000020040000208000002053
:101D1000A002002000ED00E0000000000070004183
:101D20000050004100480041004000418126000071
:101D3000711D00000300064A1268002A04D0044AFC
:101D40001068C318136070470249014A1160F6E732
:101D5000CC010020A02200200120404270478023B7
:101D60009B014B60002070470120704700207047A6
:101D7000F8B5124B9847124B9847124B9847124BA5
:101D80009847124B9847124F124EB847051CB04760
:101D90000400114B9847011C281C104B9847104910
:101DA000104B9847B047020021000F480F4B98474F
:101DB000FA2040000E4B9847E7E7C046211C000080
:101DC00075150000550E0000B90C0000990D0000BB
:101DD000E90D0000D924000019250000A121000010
:101DE00000007A44611F000054380000ED26000016
:101DF000B5150000002243088B4274D303098B42BF
:101E00005FD3030A8B4244D3030B8B4228D3030CCA
:101E10008B420DD3FF22090212BA030C8B4202D36C
:101E20001212090265D0030B8B4219D300E0090A94
:101E3000C30B8B4201D3CB03C01A5241830B8B429D
:101E400001D38B03C01A5241430B8B4201D34B0386
:101E5000C01A5241030B8B4201D30B03C01A5241EB
:101E6000C30A8B4201D3CB02C01A5241830A8B4270
:101E700001D38B02C01A5241430A8B4201D34B0259
:101E8000C01A5241030A8B4201D30B02C01A5241BD
:101E9000CDD2C3098B4201D3CB01C01A5241830971
:101EA0008B4201D38B01C01A524143098B4201D3AB
:101EB0004B01C01A524103098B4201D30B01C01AD6
:101EC0005241C3088B4201D3CB00C01A5241830850
:101ED0008B4201D38B00C01A524143088B4201D37D
:101EE0004B00C01A5241411A00D2014652411046DD
:101EF0007047FFE701B5002000F006F802BDC046BC
:101F00000029F7D076E770477047C046F0B5CE4657
:101F1000474615042D0C2E0080B50704140C3F0C09
:101F20009946030C7E435D43674363437F19340C3A
:101F3000E4199C46A54203D980235B029846C44419
:101F40004B46514343433604360C250C2404654468
:101F5000A4195918491920000CBC90469946F0BDA7
:101F6000F8B557464E464546DE46E0B547024600C0
:101F700088467F0A360EC40F002E47D0FF2E24D08D
:101F8000FB008027FF041F43002399469A467F3EAB
:101F900043465D025800DB0F6D0A000E984643D0A1
:101FA000FF283BD0EB0080250022ED041D437F3845
:101FB0003618731C41469B464B46614013430F2B1A
:101FC00064D875489B00C3589F46002F42D1082310
:101FD0009946063BFF269A46DAE74146022A28D070
:101FE000032A00D1CEE0012A00D0ACE0114000204D
:101FF0000022CCB24002D205400AE407104320433D
:102000003CBC90469946A246AB46F8BD002F15D180
:1020100004239946033B00269A46B9E7FF20022293
:10202000002DC5D00322C3E7002D19D100200122C5
:10203000BEE70124FF220C400020DBE7380000F05F
:1020400001FB7626431F9F4000237642361A9946AD
:102050009A469DE70C239946093BFF269A4697E747
:10206000280000F0EFFA431F9D4076235B42181AC8
:1020700000229DE780200024C003FF22BAE73D0034
:102080005246ABE73D0021005246A7E73B0C9C4679
:102090002A04120C2B0C1400604665463F043F0CCA
:1020A0007C4342435D437B43270C9B18FF18BA4295
:1020B00003D980235B029C46654424043A04240C23
:1020C000121993015C1EA3413F0C920E7D191A4315
:1020D000AD0115432B0104D501235E466A081D405E
:1020E000154332007F32002A25DD6B0704D00F2311
:1020F0002B40042B00D004352B0103D53200274B95
:1021000080321D40FE2A94DC0124A801400AD2B28C
:102110000C406FE78020C003074207D0054205D17D
:1021200028434002400A4446FF2263E73843400206
:10213000400AFF225EE70124A31A1B2B05DD0C4099
:102140000022002056E75E46CBE72A002020DA4036
:10215000C31A9D402B005D1EAB4113435A0704D0A8
:102160000F221A40042A00D004335A0104D5012456
:1021700001220C4000203DE701249B01580A0C403D
:10218000002237E780200124C00328434002400A90
:102190000C40FF222EE7C04668380000FFFFFFF723
:1021A000F0B54F46D64646464400C0B5C20F47027A
:1021B0004802400A844666467B0A4800C90F9A4690
:1021C000240E1500DB00000E8946F600FF2800D122
:1021D0008FE001214F464F403900914266D0221ACC
:1021E000002A00DC9DE000283DD1002E00D18BE0CC
:1021F000511E002900D0B5E001249B1B5A0144D593
:102200009B019F09380000F01DFA05388740844281
:1022100000DD96E0041B3A0020200134E240041B5C
:10222000A7403B005F1EBB41002413435A0704D064
:102230000F221A40042A00D004335A0127D5013452
:10224000FF2C00D179E001229B015B0AE4B22A4015
:102250005B02E405580AD207204310431CBC904699
:102260009946A246F0BDFF2CE0D08021C9040E4360
:102270001B2A7BDC31002020D140821A9640721E3E
:1022800096410E439B1B5A01BAD45A07D0D1012262
:10229000DF082A40FF2C33D1002F00D1A8E0802393
:1022A000DB033B435B025B0AFF24D1E7211A0029D1
:1022B0004CDD00282AD0FF2CB8D08020C004064373
:1022C0001B2900DDAFE030002027C840791A8E407E
:1022D000711E8E4106439B195901D6D50134FF2C3E
:1022E00000D185E001227A491A405B080B40134374
:1022F0009CE7002E00D070E76BE73B1EC5D10022A3
:102300007B025B0AE4B2A3E714008FE7002E4DD0F6
:10231000481E002857D19B1901245A01B5D5022423
:10232000E0E7002A25D1621CD2B2012A72DD9F1B90
:102330007A0135D5F71A0D0064E7012200232A40FF
:1023400086E73B00634A241A13406FE700296CD1EB
:10235000611CC8B201284EDDFF2949D09B195B08DA
:102360000C0063E7FF2A41D00A0081E701269B1B8E
:1023700089E7002C1CD0FF2821D08024E40452429D
:1023800023431B2A00DD96E01C002025D440AA1A16
:1023900093405A1E93412343F31A04000D002DE786
:1023A000002F00D02EE700220024A9E70C003DE713
:1023B000002B58D0D243002AEED0FF28E1D13300C1
:1023C000FF240D0032E7FF2910D0010078E7002B31
:1023D0006ED0FF24002E00D128E780225146D20380
:1023E000114203D06146114200D13300FF241DE7A2
:1023F000FF2400232CE7002CE9D1002B63D0002E12
:1024000000D113E79B195A0100D43EE7314A0C0072
:1024100013400BE7002C1ED1002B2FD1002E4FD0E4
:1024200033000D0002E7012655E7002C1FD1002BD9
:1024300043D0C94300290BD0FF2839D01B2944DCE5
:102440001C002027CC40791A8B40591E8B41234316
:102450009B19040040E7002B1AD1002E24D18027BD
:102460000022FF031BE7330004000D00DEE6FF2817
:102470001ED08024E40449422343DFE7002E00D12C
:10248000D4E69F1B7A0100D437E7F31A0D00CDE69E
:10249000FF24002E00D1C9E680225046D20310420C
:1024A000A4D060461042A1D133000D00FF24BDE648
:1024B0003300FF24BAE601236EE733000400B5E6DB
:1024C000002700221CE73300B0E60123C0E7C04626
:1024D000FFFFFF7DFFFFFFFB41024300C20F490AE0
:1024E0001B0E00207E2B0DDD9D2B0CDC80200004BC
:1024F0000143952B0ADC9620C31AD9404842002A92
:1025000000D108007047034BD018FBE7963B994079
:10251000F4E7C046FFFFFF7F70B5002830D0C31737
:10252000C4185C40C50F200000F08CF89E231B1AD5
:10253000962B0DDC9622D21A94402A006402640A7B
:10254000DBB26402DB05600AD2071843104370BD9A
:10255000992B19DC9922D21A002A29DD94402200F5
:10256000144C1440510704D00F210A40042A00D013
:102570000434620113D4A401640ADBB22A00E0E748
:10258000002200230024DCE705222100121AD1409A
:10259000B922D21A9440621E94410C43DAE7054BEB
:1025A0002A001C409F23A4011B1A640ADBB2C8E75F
:1025B0002200D5E7FFFFFFFB10B5041E27D000F077
:1025C00041F89E231B1A962B0ADC9622D21A9440BD
:1025D0006402640ADBB26402DB05600A184310BDC2
:1025E000992B17DC9922D21A002A27DD9440220069
:1025F000134C1440510704D00F210A40042A00D084
:102600000434620112D4A401640ADBB2E3E70023BC
:102610000024E0E7B9222100D21A91400A00511E9D
:102620008A410521091ACC401443DBE7044B1C40C6
:102630009F23A4011B1A640ADBB2CCE72200D7E770
:10264000FFFFFFFB1C2101231B04984201D3000C58
:1026500010391B0A984201D3000A08391B09984215
:1026600001D30009043902A2105C40187047C0462B
:10267000040302020101010100000000000000004B
:1026800070B500260C4D0D4C641BA410A64209D158
:10269000002601F055F90A4D0A4C641BA410A6420D
:1026A00005D170BDB300EB5898470136EEE7B30093
:1026B000EB5898470136F2E74C3900004C390000DE
:1026C0004C39000050390000002310B59A4200D167
:1026D00010BDCC5CC4540133F8E703008218934268
:1026E00000D1704719700133F9E700000FB40B4BAC
:1026F00013B51C68002C05D0A369002B02D1200063
:1027000000F0BCF905AB049AA1682000019300F029
:1027100091FB16BC08BC04B01847C0461800002046
:102720004A424A41802310B55200DB0000F002F813
:1027300010BD0000F0B51D004F4B85B01E680400B1
:102740000F000092002E05D0B369002B02D130009B
:1027500000F094F9494B9C4250D17468009B022BC5
:1027600005D0012B00D984E0002D00DA81E02100A2
:10277000300000F015F9616B002908D023004433C4
:10278000994202D0300000F085FA002363630023F1
:10279000A3616360A3891B0603D52169300000F0A3
:1027A00079FAA389364A1340A381009B022B5AD0A1
:1027B00003AB02AA2100300000F0F6F9A389184308
:1027C000A081002D24D1029D280000F059FA019526
:1027D000071E42D1029B0193AB4239D101204042F6
:1027E0000223A2891343A3810023A360230047335C
:1027F000236023610123636105B0F0BD214B9C423E
:1028000001D1B468AAE7204B9C42A7D1F468A5E7A0
:10281000002FD9D0B369002B02D1300000F02EF97F
:10282000009B012B03D1A389009A1A43A28108209F
:10283000A389276027616561184018D001201840DE
:102840000023984211D06D42A360A5611800D3E720
:10285000019800F015FA071EC0D08023A289019DBF
:102860001343A381D6E70020BAE7A560C4E7A060C0
:10287000C2E701204042BFE718000020CC3800002A
:102880005CF3FFFFEC380000AC380000F7B58A8934
:1028900005000C00130760D44B68002B04DC0B6CA4
:1028A000002B01DC0020FEBDE76A002FFAD00023D8
:1028B0002E682B6080235B011A4034D0606DA389A1
:1028C0005B0706D56368C01A636B002B01D0236CCD
:1028D000C01A0200216A00232800E76AB847A189CC
:1028E000431C06D12B681D2B31D82C4ADA40D30764
:1028F0002DD50023636023692360CB0405D5431CD9
:1029000002D12B68002B00D16065616B2E6000291D
:10291000C8D023004433994202D0280000F0BAF90D
:1029200000206063BFE70123216A2800B847431CE9
:10293000C5D12B68002BC2D01D2B01D0162B01D185
:102940002E60AFE74023A2891343A381ABE7402366
:102950000B430120A3814042A5E70F69002FA1D0BE
:102960000B680F60DB1B01930023920700D14B69BA
:10297000A360019B002B00DC94E7019B3A00216AD5
:102980002800A66AB047002803DC4023A28913432D
:10299000DFE7019B3F181B1A0193EAE70100402083
:1029A0000B6970B505000C00002B01D1002070BD33
:1029B000002804D08369002B01D100F05FF80B4B95
:1029C0009C4209D16C680C22A35E002BEED0210042
:1029D0002800FFF75BFFEAE7054B9C4201D1AC689A
:1029E000F1E7044B9C42EED1EC68ECE7CC380000F8
:1029F000EC380000AC38000010B5024900F0B2F825
:102A000010BDC046A1290000002310B504000360DA
:102A10004360836081814366C28103614361836156
:102A2000190008225C30FFF758FE054B24626362F0
:102A3000044BA362044BE362044B236310BDC04606
:102A4000A1330000C9330000013400002D34000020
:102A500070B568254A1E55430E002900743100F0F8
:102A600063F9041E08D000212A00016046600C3082
:102A7000A0606832FFF731FE200070BD836913B596
:102A80000400002B28D18364C3640365134B144AEC
:102A90001B6882620193984201D101238361200067
:102AA00000F020F86060200000F01CF8A06020001A
:102AB00000F018F80022E06004216068FFF7A4FF2E
:102AC00001220921A068FFF79FFF02221221E0687E
:102AD000FFF79AFF0123A36113BDC046A838000089
:102AE000F9290000F8B51E4B07001E68B369002BDA
:102AF00002D13000FFF7C2FF4836B4687368013B6B
:102B000004D53368002B07D03668F6E70C22A55EA3
:102B1000002D0DD06834F2E704213800FFF798FF4C
:102B200030600028F0D10C2304003B602000F8BD89
:102B3000012320005B42E3810233A38165662560A7
:102B4000A560656025616561A561082229005C308A
:102B5000FFF7C3FD6563A563A564E564E6E7C046CA
:102B6000A8380000F7B5040007000026019148349A
:102B7000002C01D13000FEBD6368A5680093009B66
:102B8000013B009301D52468F2E7AB89012B08D9FA
:102B90000E22AB5E013304D029003800019B984718
:102BA00006436835EBE7000070B50E001D000E23EC
:102BB000C95E90B01400002907DA00232B60B389A6
:102BC0001B0611D48023DB000FE001AA00F026FDD4
:102BD0000028F2DBF022029B12021340054A9B18E8
:102BE0005A4253412B60EDE740230020236010B090
:102BF00070BDC04600E0FFFFF7B502268B890500D7
:102C00000C00334206D023004733236023610123A5
:102C10006361F7BD01AB6A46FFF7C6FF0099070085
:102C2000280000F081F8002808D10C22A35E9A0544
:102C3000EFD4032293431E43A681E4E70F4BAB621C
:102C40008023A28920601343A381009B20616361DC
:102C5000019B002B0DD00E23E15E280000F0F0FC5C
:102C6000002806D00322A38993431A0001231343AB
:102C7000A381A0893843A081CBE7C046F929000091
:102C800010B5034B0100186800F04EF810BDC046A7
:102C90001800002070B50500002910D00C1F236813
:102CA000002B00DAE418280000F0FBFC1D4A136832
:102CB000002B05D163601460280000F0F3FC70BDA8
:102CC000A34209D9216860188342F3D118685B6870
:102CD00041182160EEE713005A68002A01D0A24291
:102CE000F9D919685818A0420BD12068091858184A
:102CF00019608242E0D110685268411819605A6028
:102D0000DAE7A04202D90C232B60D5E721686018CE
:102D1000824203D1106852684118216062605C6091
:102D2000CAE7C046D0010020032370B5CD1C9D43E7
:102D3000083506000C2D1ED20C25A9421DD83000E6
:102D400000F0AFFC254A14682100002919D1244C59
:102D50002368002B03D1300000F010FB2060290015
:102D6000300000F00BFB431C2CD10C2330003360EF
:102D700000F098FC03E0002DDFDA0C233360002024
:102D800070BD0B685B1B1AD40B2B03D90B60CC18DE
:102D9000256003E08C420ED163681360300000F0C0
:102DA00081FC200007220B30231D9043C31AE7D07B
:102DB0005A42E250E4E74B6863600C00EEE70C0017
:102DC0004968C2E70323C41C9C43A042E0D0211AF7
:102DD000300000F0D3FA431CDAD1C6E7D00100205E
:102DE000D4010020936810B5013B9360002B05DAF5
:102DF0009469A34208DBCBB20A2B05D01368581C98
:102E000010601970C8B210BD00F016FBFBE7F8B5F2
:102E100006000F001400D518AC4201D1002007E0D5
:102E200021783A003000FFF7DDFF0134431CF3D175
:102E3000F8BD0000F0B59FB006000F001400059328
:102E4000002804D08369002B01D1FFF717FE7F4BC8
:102E50009F425CD17768BB891B0762D53B69002B19
:102E60005FD0002306AD6B6120336B761033AB76F9
:102E70000294029C2378002B5DD1029BE31A0493F9
:102E80000DD0049B029A39003000FFF7C0FF431CAD
:102E900000D1CCE06A69049B944663446B6123785B
:102EA000002B00D1C3E00122002352426A6002A934
:102EB0005432521801342B60EB60AB601370AB6579
:102EC00021780522624800F0E1FB631C9C46002843
:102ED00035D12968CB0604D5532302AA20309B188C
:102EE00018700B0704D553232B2002AA9B181870C7
:102EF00023782A2B2CD000200A21099B2278303AF3
:102F0000092A00D86BE000282AD0099328E0514B09
:102F10009F4201D1B7689EE74F4B9F429BD1F76814
:102F200099E73900300000F0F1FA002899D001202B
:102F300040421FB0F0BD252B9FD001349AE7444B8F
:102F40002968C01A012383400B432B606446B7E70E
:102F5000059B181D1B680590002B3ADB09936446FE
:102F600023782E2B0BD16378621C2A2B3FD1059B33
:102F700002341A1D1B680592002B35DB079321785C
:102F80000322364800F082FB002807D0334B2A6822
:102F9000C01A4023834013432B6001342178631C03
:102FA00006222F480293297600F070FB002844D0B7
:102FB0002C4B002B2FD12968059B0722C90528D54A
:102FC0009B189343083305936B69039A9B186B61B5
:102FD0004FE75B42EB6002230B432B60BFE74B43A1
:102FE00001349B18012089E701235B42C6E70023D7
:102FF00014000A201A006B6021783039092903D99E
:10300000002BBCD00792BAE7424301345218012387
:10301000F2E70733D5E705AB00933A00124B2900DE
:10302000300000E000BF0390039B0133CCD1BB898B
:103030005B0600D57BE70B987BE705AB00933A0076
:10304000094B2900300000F07FF8ECE7CC38000095
:103050000C390000EC380000AC38000012390000D8
:1030600016390000000000000F2E0000F7B5150013
:1030700001938A680B6900900C00934200DA1300F8
:1030800022002B6043321278002A01D001332B60DA
:1030900023689B0602D52B6802332B600627236822
:1030A0001F4027D0230043331B785A1E93412268C8
:1030B000920630D42200019943320098089EB0470E
:1030C000431C25D0062320682A68E16803400025B8
:1030D000042B03D18D1AEB43DB171D40A368226933
:1030E000934201DD9B1AED180027BD4220D100203C
:1030F00010E00137E3682A689B1A9F42D2DA220067
:103100000123193201990098089EB047431CF0D161
:1031100001204042FEBD3020E118433108702100FB
:103120005A1C45310978A218433202331170C1E7A5
:10313000220001231A3201990098089EB047431CCF
:10314000E6D00137D1E70000F0B58BB006920A0057
:1031500043320793059004920A7E0C00109B6E2A5E
:1031600000D18FE017D8632A2CD008D8002A00D1CC
:1031700099E0582A54D026004236327029E0642A59
:1031800001D0692AF7D121681A68080623D5111DD4
:103190001960156825E0732A00D188E008D86F2AE5
:1031A00029D0702AE7D1202209680A43226003E06F
:1031B000752A20D0782ADED122007821453211707C
:1031C0006C4A30E00E001A684236111D196013680F
:1031D0003370012379E04906D9D5111D1960002308
:1031E000D55E002D03DA2D23049A6D421370624BD5
:1031F0000A2703932FE020681968050603D5081DE8
:1032000018600D6805E04006F9D50D68081D1860C6
:10321000ADB2594B082703936F2A18D00A2716E03E
:1032200045310A70544A03921A682168101D1860CB
:103230001568080622D5CB0702D520231943216043
:103240001027002D03D1202322689A4322602300F7
:10325000002243331A706368A360002B5CDB0422F6
:10326000216891432160002D58D1049E002B64D029
:103270002600039B42361B7833705EE04806DAD5A1
:10328000ADB2D8E709681A68080605D5111D19609E
:10329000136862691A6006E04906F7D5111D1960C6
:1032A0001368A28A1A800023049E236154E01A68DE
:1032B000111D1960166800216268300000F0E6F9FF
:1032C000002801D0801B6060636823610023049A9A
:1032D000137041E02369320006990598079DA847BD
:1032E000431C43D0236800259B070FD4099BE0684B
:1032F00098423DDA18003BE022000123193206997A
:103300000598079EB047431C30D00135E368099A01
:103310009B1A9D42F0DBE9E7002DA9D0049E28000E
:103320003900FEF7EDFD039B013E5B5C2800337026
:103330003900FEF75FFD051EF1D1082F09D1236882
:10334000DB0706D563682269934202DC3023013E25
:103350003370049B9B1B2361079B09AA00932100E8
:10336000069B0598FFF782FE431CB3D10120404223
:103370000BB0F0BD2E3900001D390000002370B5E0
:10338000064C050008002360FEF7D4FC431C03D163
:103390002368002B00D02B6070BDC0469C0200202B
:1033A00070B50C000E25495F00F07EF9002803DBA4
:1033B000636D1B18636570BDA389024A1340A38126
:1033C000F9E7C046FFEFFFFFF8B51F008B89050046
:1033D0000C001600DB0505D50E23C95E0022022372
:1033E00000F040F9A389054A28001340A381320068
:1033F0000E23E15E3B0000F075F8F8BDFFEFFFFF24
:1034000070B50C000E25495F00F02CF9A389421C11
:1034100003D1054A1340A38170BD8022520113439A
:10342000A3816065F8E7C046FFEFFFFF10B50E23EC
:10343000C95E00F0E1F810BDF8B505000E001400FB
:10344000002804D08369002B01D1FFF717FB224B22
:103450009C422DD16C68A369A360A3891B0731D559
:103460002369002B2ED023682269F7B2981A63696A
:10347000F6B2984205DB21002800FFF791FA0028F8
:1034800026D1A3680130013BA36023685A1C226047
:103490001F706369984204D0A389DB071AD50A2EEE
:1034A00018D121002800FFF77BFA002812D00FE086
:1034B0000A4B9C4201D1AC68CDE7094B9C42CAD172
:1034C000EC68C8E72100280000F020F80028CAD0E6
:1034D000012676423000F8BDCC380000EC38000000
:1034E000AC38000070B50500080011000022064C41
:1034F00022601A00FDF7B8FB431C03D12368002BA0
:1035000000D02B6070BDC0469C020020364B70B5C9
:103510001D6806000C00002D05D0AB69002B02D100
:103520002800FFF7ABFA314B9C420FD16C680C239B
:10353000E25E93B219072DD4D90611D409230120D4
:10354000336037331343A381404270BD284B9C4204
:1035500001D1AC68EBE7274B9C42E8D1EC68E6E789
:103560005B0713D5616B002908D0230044339942CF
:1035700002D03000FFF78EFB002363632422A3896F
:103580009343A38100236360236923600823A289F6
:103590001343A3812369002B0BD1A0218022A3898F
:1035A000890092000B40934203D021003000FFF7C6
:1035B00023FB0123A289134011D00023A360636978
:1035C0005B42A361002023698342BED10C23E25EEB
:1035D0001306BAD540231343A3810138B5E79207F8
:1035E00000D46369A360EDE718000020CC38000028
:1035F000EC380000AC380000002370B5064C050024
:1036000008002360FEF7A8FB431C03D12368002BAE
:1036100000D02B6070BDC0469C020020002370B516
:10362000064C0500080011002360FEF798FB431CC0
:1036300003D12368002B00D02B6070BD9C020020BA
:10364000002370B5064C050008002360FEF78CFBD4
:10365000431C03D12368002B00D02B6070BDC046F3
:103660009C02002070B50500080011000022064CE5
:1036700022601A00FEF77AFB431C03D12368002B5B
:1036800000D02B6070BDC0469C020020C9B28218D9
:10369000904201D10020704703788B42FBD001306B
:1036A000F6E770477047000070B50500080011008C
:1036B0000022064C22601A00FDF7B4FA431C03D125
:1036C0002368002B00D02B6070BDC0469C020020F8
:1036D000FA0200004005000040050000400500001F
:1036E00040050000400500004005000040050000C6
:1036F00040050000400500004005000040050000B6
:1037000040050000400500004005000040050000A5
:10371000E2020000400500004005000040050000F6
:103720004005000040050000400500004005000085
:103730004005000040050000400500004005000075
:103740004005000040050000400500004005000065
:10375000F2020000400500004005000040050000A6
:103760004005000040050000400500004005000045
:103770004005000040050000400500004005000035
:103780004005000040050000400500004005000025
:10379000EA02000002030000CA020000DA02000090
:1037A000D202000002000000030000002800000018
:1037B00029000000040000000500000006000000D1
:1037C000070000002000000021000000220000008F
:1037D0002300000024000000250000002600000057
:1037E0002700000008000000090000000A00000097
:1037F0000B00000000080042000C004200100042D4
:103800000014004200180042001C0042BE160000D6
:10381000BA160000BA16000020170000201700009A
:10382000D2160000C4160000D81600000E170000C3
:10383000A81700008817000088170000141800005F
:103840009A170000B61700008C170000C41700007C
:1038500004180000566F6C746167653A2025642E69
:10386000253033640D0A00008C200000DC1F0000AE
:10387000DC1F0000DA1F00007E2000007E20000018
:1038800074200000DA1F00007E2000007420000079
:103890007E200000DA1F0000842000008420000049
:1038A00084200000142100001C0000200000000003
:1038B0000000000000000000000000000000000008
:1038C00000000000000000000000000000000000F8
:1038D00000000000000000000000000000000000E8
:1038E00000000000000000000000000000000000D8
:1038F00000000000000000000000000000000000C8
:10390000000000000000000000000000232D302B0C
:103910002000686C4C0065666745464700303132D0
:103920003334353637383941424344454600303127
:103930003233343536373839616263646566000086
:10394000F8B5C046F8BC08BC9E467047DD000000D4
:10395000F8B5C046F8BC08BC9E467047B5000000EC
:10396000000000000000000005000000401F0000F3
:1039700008000000010000001C0000200000000002
:10398000CC380000EC380000AC380000000000002B
:103990000000000000000000000000000000000027
:1039A0000000000000000000000000000000000017
:1039B0000000000000000000000000000000000007
:1039C00000000000000000000000000000000000F7
:0C39D000000000000000000000000000EB
:0400000300001C518C
:00000001FF
