:10000000A0220020811900007D1900007D19000048
:1000100000000000000000000000000000000000E0
:100020000000000000000000000000007D1900003A
:1000300000000000000000007D1900007D19000094
:100040007D1900007D1900007D1900007D19000058
:100050007D1900007D190000790400007D19000061
:100060007D190000AD120000BD120000CD1200008D
:10007000DD120000ED120000FD1200007D190000ED
:100080007D1900007D1900007D1900007D19000018
:100090007D1900007D1900007D1900007D19000008
:1000A0007D1900007D1900007D1900007D190000F8
:1000B0000000000010B5064C2378002B07D1054B3B
:1000C000002B02D0044800E000BF0123237010BDC4
:1000D0008000002000000000E8360000084B10B54A
:1000E000002B03D00749084800E000BF0748036819
:1000F000002B00D110BD064B002BFBD09847F9E731
:100100000000000084000020E8360000E83600000F
:100110000000000030B597B002AD040050220A493B
:1001200028000A4B9847132C0BD80023A40001A9E0
:1001300060594B70CB708B7001330B70C0B2044BA5
:10014000984717B030BDC046243500004924000050
:1001500021190000C0225201C281020000232A326C
:10016000037043704380037103760362C36183604D
:100170000373037443748374C37403751370421D53
:1001800043758375D377C3840385C37526322C30BA
:1001900013700370704700008023F0B51400AC4A60
:1001A00001600700106A5B02034313620B7887B09B
:1001B0000520DB0700D5E7E00B7817309B0700D55B
:1001C000E2E063783B71002B04D1A24A0433116C46
:1001D0000B431364237805A90B701E209E4B3D68CA
:1001E00098479E4B1E20984723002C3302931B7880
:1001F000227B0192002B33D022002B321678019AF9
:100200009619F6B29B19DBB20393019BF01A039B7C
:10021000C0B2B3421BD8E089914B9847637D9B00E5
:10022000DBB22B70A37D6278DB011343DBB26B7012
:100230002379302B00D1B4E018D8102B00D1ADE0D9
:10024000202B00D1ADE0002B1AD11A00A7E00F231C
:100250001840237B0136C018814B9847F6B2D4E78B
:1002600001987F4EB047E089B047D7E7322B09D0DD
:1002700000D298E0332B00D18CE0342B00D185E004
:10028000172081E00422102302217020090101407F
:100290000A43AA70E27D3F2AF2D8EA7039684A7EA2
:1002A00052B2002AFBDB6188E27C0A43611DC87FF1
:1002B000C0000243207D80000243A07C4000024336
:1002C0001A43AA80227E9446002A07D0102B00D120
:1002D000AFE000D969E0002B00D19BE03868437E95
:1002E0005BB2002BFBDB63462B723A68537E5BB23A
:1002F000002BFBDBA38BAB833A68537E5BB2002BF6
:10030000FBDB238C2B84029B1A78002A03D0013A52
:10031000D2B20F2AB4D823002B3318780F28AFD8C5
:100320003E68737E5BB2002BFBDB267BE389000516
:100330003343A66812043343034313432B61230062
:100340002A331B782B750F23AB75CB7F002B0CD07A
:10035000E38C44498B4293D8AB848023228D1B01CC
:10036000D3189BB28B428BD8EA84E0223E4B00200C
:100370001968D2004B0119001A403C4B1B68DB0E78
:100380000B43DBB213432B8507B0F0BD617C227CAD
:1003900010237AE706221023012176E708220021A4
:1003A00073E70022FBE70222F5E7202B18D0302B61
:1003B00000D093E7E37CE069002B09D00300803391
:1003C000FF2B00D95CE7236A8033FF2B00D957E766
:1003D000FF2800DD54E7236AFF2B00DD50E77DE7AF
:1003E000E07CE669224B00280CD080208000301889
:1003F000984200D944E78022206A9200101898425F
:1004000000D93DE79E4200DD3AE7226A9A4200DDCC
:1004100036E763E7E07CE669124B0028F2D08022E1
:100420001201B018984200D92AE78020226A000100
:10043000E4E7E07CE6690F4B0028E3D0802212025B
:10044000B018984200D91BE78020226A0002D5E745
:1004500000040040000800404D180000C5170000CF
:1004600015010000FF0F0000246080002060800064
:10047000FF030000FFFF000070B5204B98470F22DC
:100480001F4B20491B8C204C13409B0058581F4D7C
:10049000037813401E4A137001781E4A090164183C
:1004A0006918137864884988DBB2611A41611C00BD
:1004B00001210C400CD0102311704374037C0B42BB
:1004C00003D04368002B00D09847134B984770BD6A
:1004D00002210B4206D01170037C44740B42F4D00D
:1004E0008368EFE704210B42EFD0062311704374B9
:1004F000037C0B42E9D0C368E4E7C04679130000EF
:10050000004800419C000020E0010020B0000020D5
:100510003F4800414E480041AD1300000023032234
:10052000037043708270C37003717047F8B53F4B1E
:1005300005000E0098473E4F3B78002B16D1202235
:100540003C4B59690A435A611022D9690A43022176
:10055000DA61394B1A888A431A80012237491A8096
:10056000596337499963374919803A702F4B984737
:10057000002401237A681A424CD1A3407A681343BD
:100580007B603B7A013B3B7201272F4B9847002F42
:1005900047D02E4B02212C701C7001242C4B264F6F
:1005A0001A788A431A701C70204B98470F222B78B8
:1005B000FC211340254A890113702A783B69944035
:1005C0006022A3433B6133785B01134072781202CF
:1005D0000A40C0211343B278090492050A4013432C
:1005E000F278002A04D007210A4001310A4313435C
:1005F0003279002A01D01022134300247B64124B6D
:1006000098472B78134A9B009D50AC610E4B98473E
:100610002000F8BD0134E4B25208052CABD100270C
:10062000B3E7094B98471420F3E7C046791300005D
:10063000000000200004004000480041E0010020CC
:10064000B0000020020F0000AD1300003F48004141
:10065000404800419C00002070B50500184B9847A9
:100660006C7C184EE4B2052C02D1B047200070BD5E
:10067000AB695B88002B02D1B0471720F7E7402217
:10068000114B1A602B78313A1340104A13702B78B3
:100690000F4AD35C072213400E4A137005232878B3
:1006A0006B740D4B0001C018A96910220B4B9847C1
:1006B00002230B4A11780B431370B0470020D6E792
:1006C00079130000AD13000000E100E03F48004155
:1006D000000100204D480041E001002049240000B5
:1006E0004048004170B50124032603880A78A343DB
:1006F0002240134303804A7806253240A2400388F3
:10070000AB43134303808B7818223340B3400588F2
:1007100095431D430580CA780388184D3240120264
:100720002B40134303800A790388154D224092021F
:100730002B40134303804A790388124D22402B40FB
:10074000D202134303808A79038822400E4C12039D
:100750002340134303800723CA791A4003885203B6
:10076000DB04DB0C134303800B894380CB684360BD
:100770000B6983604B69C36070BDC046FFFCFFFF1F
:10078000FFFBFFFFFFF7FFFFFFEFFFFF0200437CD0
:100790000520834204D09369002B03D11800916196
:1007A0007047DB68D8680028FBD1D960F8E7000003
:1007B000F0B5002489B0009201933F230026002762
:1007C0002500069007910393039A134B0120002103
:1007D0009847B6197F41069B079A03400A40049642
:1007E0000597134303D0012333431E00059F019B4C
:1007F000BB4209D802D1009BB34205D8009A019BA5
:10080000B61A9F4104430D43039B5A1E0392DBD249
:100810002000290009B0F0BD751C000010B5490882
:10082000040000234020A14201D210BD0300581C47
:10083000091B80B28C42F9D94020FF2BF5D81380D8
:100840000020F2E7F0B585B01E000AAB0D00197864
:1008500003004B4303924027AB4217D8002E18D118
:100860000200330008001B4C3100A0472A000100A1
:100870003300194C3000A04700220123121A8B418B
:10088000140C180404430027039B1C80380005B097
:10089000F0BD0024012EF6D10A00230021000D4EE8
:1008A000B047009001910B000200210028000A4C83
:1008B000A047802306009B019842E7D8009A019B3D
:1008C000690FE800A047F400041BE4B2640334435A
:1008D000D9E7C0468D1C0000B107000037B50D4CAC
:1008E00005002378002B01D000290CD001A913208A
:1008F000094B0D7098471320084B9847012300209F
:10090000657023703EBD63780800AB42FAD01D20AD
:10091000F8E7C046050100204D180000C51700008B
:10092000394A030000B50800934233D007D8374A4C
:10093000934214D0364A93421FD0002317E0354A21
:1009400093423AD0344A934244D0344A9342F4D149
:10095000002303290BD801F0F7F8502A2C2E00238E
:10096000032904D801F0F0F8430205072C4B1800C6
:1009700000BD2C4BFBE72C4BF9E700230329F6D8ED
:1009800001F0E2F837020406284BF0E7284BEEE7C7
:10099000284BECE700230329E9D801F0D5F82C0215
:1009A0000406254BE3E7254BE1E7254BDFE7254B25
:1009B000DDE7254BDBE7254BD9E700230329D6D814
:1009C00001F0C2F81D020406214BD0E7214BCEE70F
:1009D000214BCCE700230329C9D801F0B5F8120256
:1009E00004061E4BC3E71E4BC1E71E4BBFE71E4B61
:1009F000BDE70323BBE71D4BB9E71D4BB7E71D4B15
:100A0000B5E71D4BB3E7C0460010004200080042A6
:100A1000000C004200180042001C0042001400427A
:100A200003000500030006000300070003000100A7
:100A300003001E0003001F000300090003000A005A
:100A400003000B0003001100030012000300130059
:100A500003000D0003000E0003000F000300170049
:100A6000030018000300190003000400030008003D
:100A70000300100003000C000300160070B586B0E0
:100A80006946094B6A4670CB70C170CB70C10023B8
:100A900099005158814202D1D8B206B070BD0133DD
:100AA000062BF5D10020F8E77435000070B50E0074
:100AB00014001500002808D0012040420CE0074B2C
:100AC000013D1868064B1B689847611B7118002D83
:100AD000F5DCE043C017204070BDC046380200205E
:100AE00030020020013870B50E0002280DD80C002D
:100AF0008D18A01BAC420AD0054B21781868054B15
:100B000001341B6898470028F3DA0120404270BD89
:100B1000380200203402002070B594B008AC2000E8
:100B2000284B9847042180222173C0210023264DA1
:100B3000520062804901FF3AA36023716270E18133
:100B40002275A3742200214B2149280098472B6865
:100B50005A7E52B2002AFBDB0F229A751A76197858
:100B60000D3A0A431A702A68537E5BB2002BFBDBF6
:100B70006846184B98476A4627230024164E694654
:100B800053703000154B94709847012302A90B70E5
:100B90004B71CB700F330B812B684C701A33CB60C9
:100BA0000F4B8C708C71CC710C710E4C20330B611F
:100BB00020000D4B4C619847210030000B4B9847AB
:100BC00014B070BD5501000008010020990100001B
:100BD000004000421D050000100100202D0500000E
:100BE0002C01002040020020E50600008D070000D7
:100BF00010B5094B1B685A7E52B2002AFBDB022259
:100C0000197B0A431A735A7E52B2002AFBDB03484F
:100C1000034B984710BDC04608010020100100207A
:100C2000590600000023180004495A5A023380185C
:100C3000202BFAD1000980B27047C0462C01002059
:100C400010B5044B9847044B98470449044B984708
:100C500010BDC046250C00003923000009F90C3AEC
:100C6000E11C000073B56B469C1D002306000D00BF
:100C7000238021003000034B98470028F9D12388B6
:100C80002B7073BD7310000070B504000D00A9B285
:100C90002000024B98470028F9D170BD5110000088
:100CA000F8B580232D4ADB051360FF2301250024BE
:100CB0001381531DDD77931DDD77D31DDC77130082
:100CC0000833DC7713002C331C7013002D331C7099
:100CD00013239376224B234E1363234B54605363A9
:100CE00001235B429363D36380235B03D360E123DF
:100CF0005B0213621D4B9472D4729462546114822D
:100D0000D476147614775476547719491E60194BAB
:100D1000300019601849194B19601949194B984747
:100D2000194F21003B689868184B98473B68210091
:100D30005868164B98473468154B200098471F2376
:100D400018408540134B1D603268D369002BFCD1DD
:100D50002268023313432360F8BDC0464C010020D3
:100D60000200160050020020020017003802002086
:100D7000890C000034020020650C000030020020C5
:100D800000140042990D0000180000207525000095
:100D90008112000000E100E0F0B5070093B09E4B27
:100DA000396008001400049198470122049B060052
:100DB0001B680520134200D00AE1049B17301D6810
:100DC00002231D4000D003E1F3181B3898400300B4
:100DD000924A1436116AF6B20B43136223002D3384
:100DE00002931B780CA90B7030008D4B9847300094
:100DF0008C4B9847029B290018788B4B9847E37AD5
:100E000008267B71631DDB7FBB71A31DDB7FFB713C
:100E1000E37E3B72237F7B723B68039318007E4B1B
:100E200098470EAB1D80238A143002938023029AC8
:100E3000DB019A4214D008D8802310269B019A42E5
:100E400000D1C8E0102600250AE0C023029ADB0189
:100E50009A4200D1BEE0802303261B029A42F1D1C0
:100E600023680693E368079363690893237E0993D5
:100E7000E31DDB7F0A93636805932300059A08331B
:100E8000002A00D1A9E080220599520591420ED195
:100E9000DB7F002B0BD1654BC0B2256A98470EAAA9
:100EA0000100634B28009847002800D090E0637E43
:100EB000002B02D0A37E039A93730EAE3388039A5D
:100EC0009381079A069B1343089A1343059A134389
:100ED000029A1343099A120213430A9A52071343C0
:100EE00022000832D27F002A01D104321343627EED
:100EF000217F920249020A43617FE07A09020A4394
:100F0000611DC97F49040A43A11DC97F09040A4321
:100F1000A17A01430A432189FF2900D173E080208F
:100F2000400403430A4321002C310978002903D1EE
:100F300040498978890701D580210B433868C16908
:100F40000029FCD103994A603968CA69002AFCD19A
:100F500003990DAD0B6080232B70236B6A700E9389
:100F6000636BEA707360A36BAA70B360E36B1400E9
:100F7000F360A300F058E1B2002802D104982E4B90
:100F80009847431C05D02870000CC0B229002B4B99
:100F900098470134042CECD13B0000243033FC850D
:100FA000FC603C617C61BC61FC613C62BC627C6257
:100FB000BC859C701C705C70DC703868164B984760
:100FC00005001F4B1F49984720001F4BAD00EF50F5
:100FD00013B0F0BD0826012542E7DB7F002B07D0C8
:100FE0002B000096A16A206A0EAA184DA8475BE75D
:100FF000236AC0B20B930D4B9847009601002B005B
:101000000EAA0B98F1E7E17E002900D18BE7802141
:10101000C9040B4387E7C0467D0A00000004004076
:101020004D180000C5170000DD0800006918000019
:101030001D080000002000412109000021190000C6
:1010400049120000DD100000840200204508000065
:10105000C2791C23002A0AD0C28D173B002A06D170
:10106000036802321985197E1142FCD00023180052
:10107000704710B582791C23002A11D0828D173B4E
:10108000002A0DD102680420147E044208D0538B3C
:10109000DBB29C061DD00224234203D01A235483C2
:1010A000180010BD034202D050831E23F8E7012030
:1010B000034202D050831323F2E71020034202D0F0
:1010C00050834223ECE72020034202D05083412387
:1010D000E6E7138D0B800023E2E70000F8B5584BDC
:1010E0008000C4582568EB69002BFCD12B7EAF7DB6
:1010F0001F40230030331A785E78012316401F42C8
:1011000019D0E28D002A00D172E0A26A511C137836
:10111000A1626179DBB2012964D09BB2DB05DB0DF2
:101120002B85E38D013B9BB2E385002B03D101337B
:101130002B750133AB7502231F4209D02B75230099
:10114000002233331A70F30702D52000E368984772
:1011500004231F4227D0A28D002A00D16DE06B8BA3
:10116000DBB21A0746D43F22134045D002221A218F
:1011700013420FD104221E2113420BD1012213214D
:10118000134207D110224221134203D120221342DD
:1011900004D041212300323319706A83730702D5CA
:1011A00020006369984710231F4206D02B752B76C9
:1011B0001E4202D02000E369984720231F4206D038
:1011C0002B752B76330702D52000A3699847082397
:1011D0001F4206D02B752B76B30602D5236A20005A
:1011E0009847F8BD5178023209020B43A26295E795
:1011F0002B75A0E73722B7E72B8D616ADB05DB0D86
:10120000DAB20A70626A511C61626179012904D103
:101210001B0A5370636A01336362A38D013B9BB267
:10122000A385002BBFD104222A752200323213700D
:10123000B307B8D520002369B4E72B75B3E7C046E0
:101240008402002070470000F0B5094C094A237859
:10125000002B09D11E00084F084DD750EE50043323
:10126000182BFAD1173B237080001150F0BDC046F7
:101270008C01002090010020451200008402002013
:1012800007B509236A461370013353700133937015
:101290000133D3700133137101335371024B9847FB
:1012A0006B4618560EBDC0467D0A000010B5024BB5
:1012B00000201B68984710BD9001002010B5024B1C
:1012C00001205B68984710BD9001002010B5024BCB
:1012D00002209B68984710BD9001002010B5024B7A
:1012E0000320DB68984710BD9001002010B5024B29
:1012F00004201B69984710BD9001002010B5024BD7
:1013000005205B69984710BD9001002070B5094B1E
:1013100000209847FA21084C89000500A047074B98
:10132000074918602800A0470522064B1860064BA5
:101330001A6070BD3D1700005D1B00000C0000200E
:1013400040420F001000002010E000E030B5802483
:101350000021074B64021A68064B013800D230BDE9
:10136000002AFAD05A6099601D682542FCD0F4E743
:101370000C00002010E000E0094B196800290BD197
:10138000EFF31080074A002805D172B6BFF35F8FD4
:1013900005490870012111701A6801321A607047FE
:1013A000A8010020AC01002014000020084B1A689E
:1013B000013A1A601B68002B09D1064B1B78002BE1
:1013C00005D00122044B1A70BFF35F8F62B67047DD
:1013D000A8010020AC01002014000020F7B5012571
:1013E000002701AC084E21003E206570A7702570D3
:1013F000B0478022054BD2051A6021000F202770CC
:101400006570B047F7BDC046111400009844004114
:1014100007B5802201AB1A700A785A704A789A7020
:101420008A781900DA70014B984707BD211900002E
:1014300010230249CA681A42FCD0704700080040D5
:1014400070B5082806D800F07FFB0805053030127B
:101450000B1528000024200070BD164B1C69FAE70C
:10146000154B164C1B6A9B059B0FDC40F3E7114B99
:101470005C69F0E70F4D00242B689B07EBD5104B00
:10148000984724222B681340042B11D120000D4BC8
:101490009847AC68A4B24443DDE70B4B00241B78AB
:1014A0005B07D8D5034BDC68D5E780242402D2E75C
:1014B000064CD0E7B00100200008004000127A007E
:1014C000311400006918000050080040006CDC0274
:1014D00070B5847802784578012040260540204088
:1014E00080240849AD010B6AC001B3432B43A343D9
:1014F00003430320024004481202034013430B62DB
:1015000070BDC04600080040FFFCFFFFF8B508288A
:1015100006D800F019FB1405050C0E1A072034003C
:101520001720F8BD0223194A116A0B4313620020E9
:10153000F7E70223154A91690B439361F7E702230A
:10154000124A118A0B431382F1E702230F4A918A50
:101550000B439382EBE7022200240D4E0B4D3368C0
:101560000C4F13433360AA84B847B368EB627368C7
:10157000AB62AC84B84733689BB2AB84D7E7022335
:10158000054A11780B431370D1E7C04600080040AC
:10159000B001002031140000440800407FB5C22291
:1015A0001E21194BD2009A60184A0024536801ADDD
:1015B0008B43536001232B70E0B22900144B01349C
:1015C0009847252CF8D100246B4601265C709E704C
:1015D0001C7068460F4B98470F4B062098470F4BDF
:1015E00098470F4B29001C725C729C72DC720623B8
:1015F00020002B700B4B6E606C702C726C729847D5
:101600002000094B98477FBD000800400040004182
:101610004D180000D11400000D150000391600000F
:101620000004004059160000FD160000014B5878D8
:10163000C0097047000C00400823054A91690B431C
:1016400093610123034A137011781942FCD170474A
:1016500000040040000C0040F8B50C784B782402E0
:10166000060005000443002B02D08023DB021C434C
:101670004B7A002B02D080231B031C434B68012BA9
:1016800012D95D1E1D400222002D06D01D028023AE
:1016900035439B0207E0013552009A42FBD3802379
:1016A0002D0235435B031C430B7A002B02D08023B1
:1016B0009B031C430C4FB8470028FBD10B4B9847AA
:1016C0000B4B1E70B8470028FCD10A4B9D601D00D3
:1016D000B8470028FCD180226B68520213401C439B
:1016E0006C60054B9847F8BD2D160000791300007B
:1016F000080C0040000C0040AD13000070B5050060
:10170000094CA0470028FBD1084B9847084B1D7097
:10171000A0470028FCD18023064A5B0251680B4396
:101720005360054B984770BD2D16000079130000DB
:10173000040C0040000C0040AD130000F7B507009A
:10174000184EB0470028FBD1174B9847174B1F7016
:101750000193B0470028FCD1154D164B6868C004B2
:10176000C00E98470400019B1F706B68DB02DB0F03
:101770000193114B1F70B0470028FCD1AD680F4B8F
:101780009847019B2D022D0C002B08D1012D04D967
:10179000200029000A4B984704002000FEBD0135B7
:1017A000EC40FAE72D16000079130000040C00400D
:1017B000000C004041140000080C0040AD13000074
:1017C0005D1B000010B50400064B9847064B074A06
:1017D0001C7080235188DB010B435380044B9847D6
:1017E00010BDC04679130000020C0040000C004000
:1017F000AD13000010B504000E4B98470E4B0F4A76
:101800001C700F4B0F4C58885988000511405980A7
:101810005988000F2140598011008022D2015C8834
:101820001442FCD15A8800020A4002435A80064BF7
:10183000984710BD79130000020C0040FFF0FFFF35
:10184000000C0040FFBFFFFFAD13000010B50C7887
:10185000034B240204439847024BA4B25C8010BDA2
:10186000F5170000000C004010B50400064B984727
:10187000064B1C70064B5C88064B2405240F9847CA
:101880002000054B984710BD79130000020C004062
:10189000000C0040AD1300003D170000D37830B5B8
:1018A000002B35D11478802C03D0802324065B02D2
:1018B000234302255478AC4306D19478002C24D1DC
:1018C0008024A402234341605478013C012C01D8B8
:1018D000124C2340A0248DB2E4052C431C438462A7
:1018E000D0240D0C24062C431C438462D478002C95
:1018F0000AD15B0303D59378012B0CD18161537816
:10190000013B012B00D8816030BDC024E402D9E73F
:1019100041600023DEE74161F1E7C046FFFFFBFFC6
:1019200010B503000A004409C1090020814202D118
:101930000449E00140181F210B401E399940024B19
:10194000984710BD004400419D18000070470000FA
:1019500010B5054B9847054B9847054B9847054BE5
:101960009847054B984710BD9D150000DD130000FA
:101970004D1900004D1900004D190000FEE7000050
:101980002148224970B5884204D00023204CCA184F
:10199000A24232D300211F4B1F4A934231D3FF2171
:1019A0001E4B1F4A8B43936002220C2508243026CD
:1019B0001C4B1D485A62C378FC398B431343C370D8
:1019C000C378AB432343C370184B987BB0430600E6
:1019D000202030439873987BA84304439C73987BE2
:1019E000884302439A738023114A51680B43536022
:1019F000104B9847104B9847FEE7C55804331560C5
:101A0000C5E702C3C9E7C046E83600000000002071
:101A10007C00002080000020A002002000000000C8
:101A200000ED00E0FC700041005000410048004122
:101A30000040004101240000751A0000054B02001F
:101A40001968002901D104491960186882181A60C0
:101A50007047C046C8010020A0220020012040425B
:101A6000704780239B0100204B6070470120704726
:101A700000207047F8B51F4B98471F4B984701222D
:101A80001E4B1A70BFF35F8F62B61D4B98471D4BFC
:101A900098471D4B98471B211C4C1D48A0471B21F4
:101AA0001C48A0471C481D4B98471B251C4B9847BA
:101AB0001C4B071C98471C4B060098471B4B011CEE
:101AC000381C98471A491B4B9847164B98473100CA
:101AD00002001948A047FA20184B400098472900F7
:101AE0001748A04729000B48A04729001548A047E0
:101AF000DCE7C046511900000D130000140000205F
:101B0000A10C0000190B0000F10B00006D24000077
:101B10008C350000923500009735000061250000EB
:101B2000410C00005922000099220000211F0000F2
:101B300000007A44E11C0000D33500004D13000082
:101B4000E4350000EA35000002B471464908490056
:101B5000095C49008E4402BC7047C046002243081D
:101B60008B4274D303098B425FD3030A8B4244D365
:101B7000030B8B4228D3030C8B420DD3FF220902A7
:101B800012BA030C8B4202D31212090265D0030B66
:101B90008B4219D300E0090AC30B8B4201D3CB035C
:101BA000C01A5241830B8B4201D38B03C01A52419E
:101BB000430B8B4201D34B03C01A5241030B8B42A0
:101BC00001D30B03C01A5241C30A8B4201D3CB028B
:101BD000C01A5241830A8B4201D38B02C01A524170
:101BE000430A8B4201D34B02C01A5241030A8B4273
:101BF00001D30B02C01A5241CDD2C3098B4201D38B
:101C0000CB01C01A524183098B4201D38B01C01A08
:101C1000524143098B4201D34B01C01A524103097F
:101C20008B4201D30B01C01A5241C3088B4201D32E
:101C3000CB00C01A524183088B4201D38B00C01ADB
:101C4000524143088B4201D34B00C01A5241411A02
:101C500000D20146524110467047FFE701B500200F
:101C600000F006F802BDC0460029F7D076E77047BD
:101C70007047C0469140031C90409C46203A9340D8
:101C8000194352426346D34019437047F0B5CE46DC
:101C9000474615042D0C2E0080B50704140C3F0C8C
:101CA0009946030C7E435D43674363437F19340CBD
:101CB000E4199C46A54203D980235B029846C4449C
:101CC0004B46514343433604360C250C24046544EB
:101CD000A4195918491920000CBC90469946F0BD2A
:101CE000F8B557464E464546DE46E0B54702460043
:101CF00088467F0A360EC40F002E47D0FF2E24D010
:101D0000FB008027FF041F43002399469A467F3E2D
:101D100043465D025800DB0F6D0A000E984643D023
:101D2000FF283BD0EB0080250022ED041D437F38C7
:101D30003618731C41469B464B46614013430F2B9C
:101D400064D875489B00C3589F46002F42D1082392
:101D50009946063BFF269A46DAE74146022A28D0F2
:101D6000032A00D1CEE0012A00D0ACE011400020CF
:101D70000022CCB24002D205400AE40710432043BF
:101D80003CBC90469946A246AB46F8BD002F15D103
:101D900004239946033B00269A46B9E7FF20022216
:101DA000002DC5D00322C3E7002D19D10020012248
:101DB000BEE70124FF220C400020DBE7380000F0E2
:101DC00001FB7626431F9F4000237642361A994630
:101DD0009A469DE70C239946093BFF269A4697E7CA
:101DE000280000F0EFFA431F9D4076235B42181A4B
:101DF00000229DE780200024C003FF22BAE73D00B7
:101E00005246ABE73D0021005246A7E73B0C9C46FB
:101E10002A04120C2B0C1400604665463F043F0C4C
:101E20007C4342435D437B43270C9B18FF18BA4217
:101E300003D980235B029C46654424043A04240CA5
:101E4000121993015C1EA3413F0C920E7D191A4397
:101E5000AD0115432B0104D501235E466A081D40E0
:101E6000154332007F32002A25DD6B0704D00F2393
:101E70002B40042B00D004352B0103D53200274B17
:101E800080321D40FE2A94DC0124A801400AD2B20F
:101E90000C406FE78020C003074207D0054205D100
:101EA00028434002400A4446FF2263E73843400289
:101EB000400AFF225EE70124A31A1B2B05DD0C401C
:101EC0000022002056E75E46CBE72A002020DA40B9
:101ED000C31A9D402B005D1EAB4113435A0704D02B
:101EE0000F221A40042A00D004335A0104D50124D9
:101EF00001220C4000203DE701249B01580A0C40C0
:101F0000002237E780200124C00328434002400A12
:101F10000C40FF222EE7C046F0350000FFFFFFF720
:101F2000F0B54F46D64646464400C0B5C20F4702FC
:101F30004802400A844666467B0A4800C90F9A4612
:101F4000240E1500DB00000E8946F600FF2800D1A4
:101F50008FE001214F464F403900914266D0221A4E
:101F6000002A00DC9DE000283DD1002E00D18BE04E
:101F7000511E002900D0B5E001249B1B5A0144D515
:101F80009B019F09380000F01DFA05388740844204
:101F900000DD96E0041B3A0020200134E240041BDF
:101FA000A7403B005F1EBB41002413435A0704D0E7
:101FB0000F221A40042A00D004335A0127D50134D5
:101FC000FF2C00D179E001229B015B0AE4B22A4098
:101FD0005B02E405580AD207204310431CBC90461C
:101FE0009946A246F0BDFF2CE0D08021C9040E43E3
:101FF0001B2A7BDC31002020D140821A9640721EC1
:1020000096410E439B1B5A01BAD45A07D0D10122E4
:10201000DF082A40FF2C33D1002F00D1A8E0802315
:10202000DB033B435B025B0AFF24D1E7211A002953
:102030004CDD00282AD0FF2CB8D08020C0040643F5
:102040001B2900DDAFE030002027C840791A8E4000
:10205000711E8E4106439B195901D6D50134FF2CC0
:1020600000D185E001227A491A405B080B401343F6
:102070009CE7002E00D070E76BE73B1EC5D1002225
:102080007B025B0AE4B2A3E714008FE7002E4DD079
:10209000481E002857D19B1901245A01B5D50224A6
:1020A000E0E7002A25D1621CD2B2012A72DD9F1B13
:1020B0007A0135D5F71A0D0064E7012200232A4082
:1020C00086E73B00634A241A13406FE700296CD16E
:1020D000611CC8B201284EDDFF2949D09B195B085D
:1020E0000C0063E7FF2A41D00A0081E701269B1B11
:1020F00089E7002C1CD0FF2821D08024E404524220
:1021000023431B2A00DD96E01C002025D440AA1A98
:1021100093405A1E93412343F31A04000D002DE708
:10212000002F00D02EE700220024A9E70C003DE795
:10213000002B58D0D243002AEED0FF28E1D1330043
:10214000FF240D0032E7FF2910D0010078E7002BB3
:102150006ED0FF24002E00D128E780225146D20302
:10216000114203D06146114200D13300FF241DE724
:10217000FF2400232CE7002CE9D1002B63D0002E94
:1021800000D113E79B195A0100D43EE7314A0C00F5
:1021900013400BE7002C1ED1002B2FD1002E4FD067
:1021A00033000D0002E7012655E7002C1FD1002B5C
:1021B00043D0C94300290BD0FF2839D01B2944DC68
:1021C0001C002027CC40791A8B40591E8B41234399
:1021D0009B19040040E7002B1AD1002E24D1802740
:1021E0000022FF031BE7330004000D00DEE6FF289A
:1021F0001ED08024E40449422343DFE7002E00D1AF
:10220000D4E69F1B7A0100D437E7F31A0D00CDE620
:10221000FF24002E00D1C9E680225046D20310428E
:10222000A4D060461042A1D133000D00FF24BDE6CA
:102230003300FF24BAE601236EE733000400B5E65D
:10224000002700221CE73300B0E60123C0E7C046A8
:10225000FFFFFF7DFFFFFFFB41024300C20F490A62
:102260001B0E00207E2B0DDD9D2B0CDC802000043E
:102270000143952B0ADC9620C31AD9404842002A14
:1022800000D108007047034BD018FBE7963B9940FC
:10229000F4E7C046FFFFFF7F70B5002830D0C317BA
:1022A000C4185C40C50F200000F08CF89E231B1A58
:1022B000962B0DDC9622D21A94402A006402640AFE
:1022C000DBB26402DB05600AD2071843104370BD1D
:1022D000992B19DC9922D21A002A29DD9440220078
:1022E000144C1440510704D00F210A40042A00D096
:1022F0000434620113D4A401640ADBB22A00E0E7CB
:10230000002200230024DCE705222100121AD1401C
:10231000B922D21A9440621E94410C43DAE7054B6D
:102320002A001C409F23A4011B1A640ADBB2C8E7E1
:102330002200D5E7FFFFFFFB10B5041E27D000F0F9
:1023400041F89E231B1A962B0ADC9622D21A94403F
:102350006402640ADBB26402DB05600A184310BD44
:10236000992B17DC9922D21A002A27DD94402200EB
:10237000134C1440510704D00F210A40042A00D006
:102380000434620112D4A401640ADBB2E3E700233F
:102390000024E0E7B9222100D21A91400A00511E20
:1023A0008A410521091ACC401443DBE7044B1C4049
:1023B0009F23A4011B1A640ADBB2CCE72200D7E7F3
:1023C000FFFFFFFB1C2101231B04984201D3000CDB
:1023D00010391B0A984201D3000A08391B09984298
:1023E00001D30009043902A2105C40187047C046AE
:1023F00004030202010101010000000000000000CE
:1024000070B500260C4D0D4C641BA410A64209D1DA
:10241000002601F059F90A4D0A4C641BA410A6428B
:1024200005D170BDB300EB5898470136EEE7B30015
:10243000EB5898470136F2E7D4360000D436000056
:10244000D4360000D8360000002310B59A4200D1DF
:1024500010BDCC5CC4540133F8E7030082189342EA
:1024600000D1704719700133F9E700000FB40B4B2E
:1024700013B51C68002C05D0A369002B02D12000E5
:1024800000F0F2FA05AB049AA1682000019300F075
:10249000C7FC16BC08BC04B01847C0461800002092
:1024A00070B505000E00002804D08369002B01D10F
:1024B00000F0DAFAAB69AC68002B02D1280000F01A
:1024C000D3FA244B9C420FD16C68A3891B0702D519
:1024D0002369002B20D12100280000F057F90028A3
:1024E0001AD00120404270BD1B4B9C4201D1AC6808
:1024F000EBE71A4B9C42E8D1EC68E6E7013B01367A
:10250000A360002B04DAA269934216DB0A2914D0D7
:1025100023685A1C226019703178A3680029EDD114
:10252000013BA360002B0FDA22000A31280000F0E3
:10253000D7F8431CD5D00A20D5E72200280000F0A8
:10254000CFF8431CE8D1CCE70A2023685A1C22604C
:102550001870C8E7543600007436000034360000A6
:1025600010B5034B01001868FFF79AFF10BDC04675
:10257000180000204A424A41802310B55200DB0077
:1025800000F002F810BD0000F0B51D004F4B85B003
:102590001E6804000F000092002E05D0B369002BC6
:1025A00002D1300000F060FA494B9C4250D174686F
:1025B000009B022B05D0012B00D984E0002D00DA0E
:1025C00081E02100300000F0E1F9616B002908D0C2
:1025D00023004433994202D0300000F051FB002325
:1025E00063630023A3616360A3891B0603D521698C
:1025F000300000F045FBA389364A1340A381009BBD
:10260000022B5AD003AB02AA2100300000F0C2FA1C
:10261000A3891843A081002D24D1029D280000F039
:1026200025FB0195071E42D1029B0193AB4239D194
:10263000012040420223A2891343A3810023A36007
:1026400023004733236023610123636105B0F0BD9C
:10265000214B9C4201D1B468AAE7204B9C42A7D1F0
:10266000F468A5E7002FD9D0B369002B02D1300060
:1026700000F0FAF9009B012B03D1A389009A1A43B9
:10268000A2810820A389276027616561184018D0BE
:10269000012018400023984211D06D42A360A5612B
:1026A0001800D3E7019800F0E1FA071EC0D080239C
:1026B000A289019D1343A381D6E70020BAE7A56054
:1026C000C4E7A060C2E701204042BFE71800002035
:1026D000543600005CF3FFFF74360000343600000F
:1026E000F8B505000E001400002804D08369002B03
:1026F00001D100F0B9F9224B9C422DD16C68A3693D
:10270000A360A3891B0731D52369002B2ED0236832
:102710002269F7B2981A6369F6B2984205DB210084
:10272000280000F033F9002826D1A3680130013BCE
:10273000A36023685A1C22601F706369984204D00A
:10274000A389DB071AD50A2E18D12100280000F032
:102750001DF9002812D00FE00A4B9C4201D1AC6851
:10276000CDE7094B9C42CAD1EC68C8E7210028009C
:1027700000F00CF80028CAD0012676423000F8BDDF
:10278000543600007436000034360000364B70B505
:102790001D6806000C00002D05D0AB69002B02D18E
:1027A000280000F061F9314B9C420FD16C680C237A
:1027B000E25E93B219072DD4D90611D40923012062
:1027C000336037331343A381404270BD284B9C4292
:1027D00001D1AC68EBE7274B9C42E8D1EC68E6E717
:1027E0005B0713D5616B002908D02300443399425D
:1027F00002D0300000F044FA002363632422A3894E
:102800009343A38100236360236923600823A28983
:102810001343A3812369002B0BD1A0218022A3891C
:10282000890092000B40934203D02100300000F059
:10283000D9F90123A289134011D00023A360636951
:102840005B42A361002023698342BED10C23E25E78
:102850001306BAD540231343A3810138B5E7920785
:1028600000D46369A360EDE718000020543600002F
:102870007436000034360000F7B58A8905000C0074
:10288000130760D44B68002B04DC0B6C002B01DCBD
:102890000020FEBDE76A002FFAD000232E682B60CF
:1028A00080235B011A4034D0606DA3895B0706D595
:1028B0006368C01A636B002B01D0236CC01A02003E
:1028C000216A00232800E76AB847A189431C06D182
:1028D0002B681D2B31D82C4ADA40D3072DD5002385
:1028E000636023692360CB0405D5431C02D12B68A8
:1028F000002B00D16065616B2E600029C8D02300D9
:102900004433994202D0280000F0BAF900206063F5
:10291000BFE70123216A2800B847431CC5D12B68B3
:10292000002BC2D01D2B01D0162B01D12E60AFE79A
:102930004023A2891343A381ABE740230B4301202B
:10294000A3814042A5E70F69002FA1D00B680F605B
:10295000DB1B01930023920700D14B69A360019B0D
:10296000002B00DC94E7019B3A00216A2800A66A4C
:10297000B047002803DC4023A2891343DFE7019B13
:102980003F181B1A0193EAE7010040200B6970B55C
:1029900005000C00002B01D1002070BD002804D0E0
:1029A0008369002B01D100F05FF80B4B9C4209D1E9
:1029B0006C680C22A35E002BEED021002800FFF7EC
:1029C0005BFFEAE7054B9C4201D1AC68F1E7044BA1
:1029D0009C42EED1EC68ECE75436000074360000FF
:1029E0003436000010B5024900F0B2F810BDC04600
:1029F0008D290000002310B504000360436083604C
:102A000081814366C28103614361836119000822A9
:102A10005C30FFF722FD054B24626362044BA36226
:102A2000044BE362044B236310BDC0468D330000AA
:102A3000B5330000ED3300001934000070B568258F
:102A40004A1E55430E002900743100F063F9041E3C
:102A500008D000212A00016046600C30A060683276
:102A6000FFF7FBFC200070BD836913B50400002B49
:102A700028D18364C3640365134B144A1B688262C4
:102A80000193984201D101238361200000F020F8D6
:102A90006060200000F01CF8A060200000F018F832
:102AA0000022E06004216068FFF7A4FF01220921F1
:102AB000A068FFF79FFF02221221E068FFF79AFF4C
:102AC0000123A36113BDC04630360000E529000094
:102AD000F8B51E4B07001E68B369002B02D1300009
:102AE000FFF7C2FF4836B4687368013B04D533680A
:102AF000002B07D03668F6E70C22A55E002D0DD01E
:102B00006834F2E704213800FFF798FF30600028AE
:102B1000F0D10C2304003B602000F8BD012320000D
:102B20005B42E3810233A38165662560A560656031
:102B300025616561A561082229005C30FFF78DFCE5
:102B40006563A563A564E564E6E7C046303600002A
:102B5000F7B504000700002601914834002C01D18C
:102B60003000FEBD6368A5680093009B013B0093A5
:102B700001D52468F2E7AB89012B08D90E22AB5EA0
:102B8000013304D029003800019B9847064368357B
:102B9000EBE7000070B50E001D000E23C95E90B07B
:102BA0001400002907DA00232B60B3891B0611D417
:102BB0008023DB000FE001AA00F05AFC0028F2DBC2
:102BC000F022029B12021340054A9B185A425341BD
:102BD0002B60EDE740230020236010B070BDC0469D
:102BE00000E0FFFFF7B502268B8905000C00334299
:102BF00006D0230047332360236101236361F7BDBF
:102C000001AB6A46FFF7C6FF00990700280000F0F5
:102C100081F8002808D10C22A35E9A05EFD4032284
:102C200093431E43A681E4E70F4BAB628023A28946
:102C300020601343A381009B20616361019B002BF3
:102C40000DD00E23E15E280000F024FC002806D001
:102C50000322A38993431A0001231343A381A0896C
:102C60003843A081CBE7C046E529000010B5034BEF
:102C70000100186800F04EF810BDC0461800002092
:102C800070B50500002910D00C1F2368002B00DA56
:102C9000E418280000F02FFC1D4A1368002B05D112
:102CA00063601460280000F027FC70BDA34209D9BE
:102CB000216860188342F3D118685B68411821606D
:102CC000EEE713005A68002A01D0A242F9D9196828
:102CD0005818A0420BD12068091858181960824270
:102CE000E0D110685268411819605A60DAE7A042D2
:102CF00002D90C232B60D5E721686018824203D1EA
:102D0000106852684118216062605C60CAE7C04682
:102D1000CC010020032370B5CD1C9D43083506006F
:102D20000C2D1ED20C25A9421DD8300000F0E3FB6B
:102D3000254A14682100002919D1244C2368002B4E
:102D400003D1300000F010FB20602900300000F0BB
:102D50000BFB431C2CD10C233000336000F0CCFB68
:102D600003E0002DDFDA0C233360002070BD0B6818
:102D70005B1B1AD40B2B03D90B60CC18256003E026
:102D80008C420ED163681360300000F0B5FB200068
:102D900007220B30231D9043C31AE7D05A42E2505A
:102DA000E4E74B6863600C00EEE70C004968C2E79B
:102DB0000323C41C9C43A042E0D0211A300000F041
:102DC000D3FA431CDAD1C6E7CC010020D0010020A1
:102DD000936810B5013B9360002B05DA9469A34218
:102DE00008DBCBB20A2B05D01368581C1060197091
:102DF000C8B210BDFFF774FCFBE7F8B506000F0082
:102E00001400D518AC4201D1002007E021783A0027
:102E10003000FFF7DDFF0134431CF3D1F8BD0000A3
:102E2000F0B59FB006000F0014000593002804D0F1
:102E30008369002B01D1FFF717FE7F4B9F425CD1C6
:102E40007768BB891B0762D53B69002B5FD00023E5
:102E500006AD6B6120336B761033AB760294029C27
:102E60002378002B5DD1029BE31A04930DD0049BC1
:102E7000029A39003000FFF7C0FF431C00D1CCE0BC
:102E80006A69049B944663446B612378002B00D1EC
:102E9000C3E00122002352426A6002A95432521850
:102EA00001342B60EB60AB601370AB6521780522B9
:102EB000624800F015FB631C9C46002835D1296848
:102EC000CB0604D5532302AA20309B1818700B0799
:102ED00004D553232B2002AA9B18187023782A2B81
:102EE0002CD000200A21099B2278303A092A00D8E8
:102EF0006BE000282AD0099328E0514B9F4201D172
:102F0000B7689EE74F4B9F429BD1F76899E739001E
:102F10003000FFF73BFC002899D0012040421FB051
:102F2000F0BD252B9FD001349AE7444B2968C01A85
:102F3000012383400B432B606446B7E7059B181DB4
:102F40001B680590002B3ADB0993644623782E2BEF
:102F50000BD16378621C2A2B3FD1059B02341A1DCA
:102F60001B680592002B35DB079321780322364836
:102F700000F0B6FA002807D0334B2A68C01A402365
:102F8000834013432B6001342178631C06222F48B1
:102F90000293297600F0A4FA002844D02C4B002B91
:102FA0002FD12968059B0722C90528D59B18934373
:102FB000083305936B69039A9B186B614FE75B427B
:102FC000EB6002230B432B60BFE74B4301349B189C
:102FD000012089E701235B42C6E7002314000A2091
:102FE0001A006B6021783039092903D9002BBCD035
:102FF0000792BAE74243013452180123F2E707333C
:10300000D5E705AB00933A00124B2900300000E0F1
:1030100000BF0390039B0133CCD1BB895B0600D575
:103020007BE70B987BE705AB00933A00094B29003F
:10303000300000F07FF8ECE75436000094360000D2
:1030400074360000343600009A3600009E360000C8
:1030500000000000FB2D0000F7B5150001938A6801
:103060000B6900900C00934200DA130022002B60E1
:1030700043321278002A01D001332B6023689B066B
:1030800002D52B6802332B60062723681F4027D008
:10309000230043331B785A1E93412268920630D492
:1030A0002200019943320098089EB047431C25D066
:1030B000062320682A68E16803400025042B03D119
:1030C0008D1AEB43DB171D40A3682269934201DD93
:1030D0009B1AED180027BD4220D1002010E00137D7
:1030E000E3682A689B1A9F42D2DA22000123193230
:1030F00001990098089EB047431CF0D1012040423E
:10310000FEBD3020E1184331087021005A1C4531C2
:103110000978A218433202331170C1E7220001235B
:103120001A3201990098089EB047431CE6D0013737
:10313000D1E70000F0B58BB006920A004332079346
:10314000059004920A7E0C00109B6E2A00D18FE03D
:1031500017D8632A2CD008D8002A00D199E0582A21
:1031600054D026004236327029E0642A01D0692A00
:10317000F7D121681A68080623D5111D1960156852
:1031800025E0732A00D188E008D86F2A29D0702A58
:10319000E7D1202209680A43226003E0752A20D083
:1031A000782ADED122007821453211706C4A30E055
:1031B0000E001A684236111D19601368337001231E
:1031C00079E04906D9D5111D19600023D55E002D7F
:1031D00003DA2D23049A6D421370624B0A2703937E
:1031E0002FE020681968050603D5081D18600D68D2
:1031F00005E04006F9D50D68081D1860ADB2594BC1
:10320000082703936F2A18D00A2716E045310A7061
:10321000544A03921A682168101D18601568080640
:1032200022D5CB0702D52023194321601027002D7A
:1032300003D1202322689A432260230000224333D3
:103240001A706368A360002B5CDB04222168914341
:103250002160002D58D1049E002B64D02600039BD2
:1032600042361B7833705EE04806DAD5ADB2D8E757
:1032700009681A68080605D5111D19601368626986
:103280001A6006E04906F7D5111D19601368A28A75
:103290001A800023049E236154E01A68111D1960EE
:1032A000166800216268300000F01AF9002801D089
:1032B000801B6060636823610023049A137041E0FF
:1032C0002369320006990598079DA847431C43D0FF
:1032D000236800259B070FD4099BE06898423DDADC
:1032E00018003BE022000123193206990598079E39
:1032F000B047431C30D00135E368099A9B1A9D42C0
:10330000F0DBE9E7002DA9D0049E28003900FEF784
:10331000ABFC039B013E5B5C280033703900FEF779
:103320001DFC051EF1D1082F09D12368DB0706D546
:1033300063682269934202DC3023013E3370049BB0
:103340009B1B2361079B09AA00932100069B0598FC
:10335000FFF782FE431CB3D1012040420BB0F0BD09
:10336000B6360000A5360000002370B5064C0500F7
:1033700008002360FEF762FB431C03D12368002B87
:1033800000D02B6070BDC0469C02002070B50C00C0
:103390000E25495F00F0B2F8002803DB636D1B18AF
:1033A000636570BDA389024A1340A381F9E7C04653
:1033B000FFEFFFFFF8B51F008B8905000C0016001A
:1033C000DB0505D50E23C95E0022022300F074F848
:1033D000A389054A28001340A38132000E23E15E31
:1033E0003B0000F01FF8F8BDFFEFFFFF70B50C00C9
:1033F0000E25495F00F060F8A389421C03D1054AFD
:103400001340A38170BD802252011343A3816065E4
:10341000F8E7C046FFEFFFFF10B50E23C95E00F0CE
:1034200015F810BD70B50500080011000022064C0B
:1034300022601A00FDF756FB431C03D12368002BC2
:1034400000D02B6070BDC0469C020020002370B5E8
:10345000064C050008002360FEF700FB431C03D167
:103460002368002B00D02B6070BDC0469C0200205A
:10347000002370B5064C0500080011002360FEF71C
:10348000F0FA431C03D12368002B00D02B6070BDE1
:103490009C020020002370B5064C05000800236044
:1034A000FEF7E4FA431C03D12368002B00D02B6005
:1034B00070BDC0469C02002070B5050008001100D8
:1034C0000022064C22601A00FEF7D2FA431C03D1F8
:1034D0002368002B00D02B6070BDC0469C020020EA
:1034E000C9B28218904201D10020704703788B4204
:1034F000FBD00130F6E770477047000070B505005B
:10350000080011000022064C22601A00FDF7CEFAD6
:10351000431C03D12368002B00D02B6070BDC04634
:103520009C020020020000000300000028000000B0
:103530002900000004000000050000000600000053
:103540000700000020000000210000002200000011
:1035500023000000240000002500000026000000D9
:103560002700000008000000090000000A00000019
:103570000B00000000080042000C00420010004256
:103580000014004200180042001C004225635B3218
:103590004A0025635B7500202D2D1B5B33313B31C9
:1035A0006D2050656E6775696E27731B5B303B3B02
:1035B00034306D2053414D44323120414443204446
:1035C000656D6F207573696E6720444D41202D2D08
:1035D000200D00566F6C746167653A2025642E25B6
:1035E0003033640025635B324B0025635B3142005E
:1035F0000C1E00005C1D00005C1D00005A1D000038
:10360000FE1D0000FE1D0000F41D00005A1D0000FC
:10361000FE1D0000F41D0000FE1D00005A1D0000EC
:10362000041E0000041E0000041E0000941E000082
:103630001C0000200000000000000000000000004E
:10364000000000000000000000000000000000007A
:10365000000000000000000000000000000000006A
:10366000000000000000000000000000000000005A
:10367000000000000000000000000000000000004A
:10368000000000000000000000000000000000003A
:1036900000000000232D302B2000686C4C00656674
:1036A0006745464700303132333435363738394193
:1036B00042434445460030313233343536373839A9
:1036C0006162636465660000F8B5C046F8BC08BC7A
:1036D0009E467047DD000000F8B5C046F8BC08BC47
:0836E0009E467047B500000092
:1036E800000000000000000005000000401F00006E
:1036F80008000000010000001C000020000000007D
:103708005436000074360000343600000000000013
:1037180000000000000000000000000000000000A1
:103728000000000000000000000000000000000091
:103738000000000000000000000000000000000081
:103748000000000000000000000000000000000071
:0C37580000000000000000000000000065
:04000003000019815F
:00000001FF
